:100000000C942A000C9484060C94B7060C944700B8
:100010000C9447000C9447000C9447000C94470044
:100020000C9447000C9447000C9447000C94470034
:100030000C9447000C9447000C9447000C94470024
:100040000C9447000C9447000C94EA060C9447006B
:100050000C94470011241FBECFE5D4E0DEBFCDBF16
:1000600010E0A0E6B0E0E0E6FBE102C005900D92F2
:10007000A03DB107D9F710E0A0EDB0E001C01D929E
:10008000A63DB107E1F70E945C0D0C94AE0D0C94F7
:100090000000EF92FF920F931F937B018C0120E0F1
:1000A00030E040E05FE40E94490388238CF0C801FF
:1000B000B70120E030E040E05FE40E94C1010E940F
:1000C000A9039B01AC01205030404040504806C07D
:1000D000C801B7010E94A9039B01AC01B901CA0183
:1000E0001F910F91FF90EF900895A0E0B0E0EBE733
:1000F000F0E00C94770DDC012B01FA019C91923019
:1001000008F439C1EB018881823008F433C194309E
:1001100069F4843009F02FC111969C91119789815F
:10012000981709F428C1A0E6B0E025C1843009F48D
:1001300021C18230A9F4923009F01DC19A01AD01AC
:1001400088E0EA010990AE01E90109929E0181501F
:10015000C1F7E201898111969C918923818308C1AD
:10016000923009F407C112962D903C901397EB0141
:100170008A819B811496AD90BD90CD90DC901797AD
:10018000EC80FD800E811F819101281B390BB90184
:1001900037FF04C066277727621B730B6032710537
:1001A0000CF061C0121613066CF537014801062EDB
:1001B00004C096948794779467940A94D2F721E0C8
:1001C00030E040E050E004C0220F331F441F551FB1
:1001D0006A95D2F721503040404050402E213F21B7
:1001E00040235123211531054105510521F021E01E
:1001F00030E040E050E079018A01E628F72808293C
:1002000019293CC0232BD1F1260E371E350146019A
:10021000062E04C096948794779467940A94D2F734
:1002200021E030E040E050E004C0220F331F441FC3
:10023000551F6A95D2F721503040404050402A2146
:100240003B214C215D21211531054105510521F04E
:1002500021E030E040E050E059016A01A628B728CB
:10026000C828D9280BC0821593052CF01C01AA249C
:10027000BB24650103C0EE24FF24870111969C91E5
:10028000D20111968C91981709F445C0992339F041
:10029000A80197012A193B094C095D0906C0A6016E
:1002A00095012E193F09400B510B57FD08C01182D3
:1002B0003382228224833583468357831DC081E0A5
:1002C00081833382228288279927DC01821B930B4A
:1002D000A40BB50B84839583A683B7830DC0220F2F
:1002E000331F441F551F24833583468357838281E0
:1002F000938101979383828324813581468157813D
:10030000DA01C9010197A109B1098F5F9F4FAF4F72
:10031000BF4328F30BC0918333822282EA0CFB1C7B
:100320000C1D1D1DE482F5820683178383E0808304
:10033000248135814681578157FF1AC0C901AA27F8
:1003400097FDA095BA2F81709070A070B0705695EF
:10035000479537952795822B932BA42BB52B848318
:100360009583A683B7838281938101969383828349
:10037000DF0101C0D201CD01CDB7DEB7E2E10C94BF
:10038000930DA0E2B0E0E7ECF1E00C94830D6983FB
:100390007A838B839C832D833E834F835887E9E048
:1003A000EE2EF12CEC0EFD1ECE010196B7010E943F
:1003B000D2048E010F5E1F4FCE010596B8010E9438
:1003C000D2048A8991E089278A8BC701B801AE01DE
:1003D000475E5F4F0E9475000E94FD03A096E6E015
:1003E0000C949F0DA0E2B0E0E8EFF1E00C94830DD7
:1003F00069837A838B839C832D833E834F835887C5
:10040000F9E0EF2EF12CEC0EFD1ECE010196B701A6
:100410000E94D2048E010F5E1F4FCE010596B801D7
:100420000E94D204C701B801AE01475E5F4F0E942F
:1004300075000E94FD03A096E6E00C949F0DA0E2DB
:10044000B0E0E5E2F2E00C94770D69837A838B8368
:100450009C832D833E834F835887CE010196BE0136
:10046000675F7F4F0E94D204CE010596BE016F5E8A
:100470007F4F0E94D2049985923088F0898982301A
:10048000C8F0943019F4823051F404C0843029F457
:10049000923081F480E690E0C6C0923049F420E0CA
:1004A0009A858A89981321E02A87CE010996BBC0D4
:1004B000823049F420E09A858A89981321E02A8BBA
:1004C000CE014196B0C02D843E844F8458886D88FB
:1004D0007E888F88988CEE24FF248701AA24BB2471
:1004E000650140E050E060E070E0E0E0F0E0C10174
:1004F00081709070892BE9F0E60CF71C081D191D1E
:100500009A01AB012A0D3B1D4C1D5D1D80E090E062
:10051000A0E0B0E0E614F7040805190520F481E036
:1005200090E0A0E0B0E0BA01A901480F591F6A1F8E
:100530007B1FAA0CBB1CCC1CDD1C97FE08C081E0F5
:1005400090E0A0E0B0E0A82AB92ACA2ADB2A3196B6
:10055000E032F10549F0660C771C881C991C569412
:10056000479437942794C3CFFA85EA892B893C892D
:100570008B859C85280F391F2E5F3F4F17C0CA01FE
:1005800081709070892B61F016950795F794E79428
:1005900080E090E0A0E0B0E8E82AF92A0A2B1B2BC3
:1005A00076956795579547952F5F3F4F77FDE7CF36
:1005B0000CC0440F551F661F771F17FD4160EE0CDE
:1005C000FF1C001F111F21503040403090E05907A0
:1005D00090E0690790E4790760F32B8F3C8FDB0193
:1005E000CA018F779070A070B07080349105A1051A
:1005F000B10561F447FD0AC0E114F10401051105DC
:1006000029F0405C5F4F6F4F7F4F40781A8EFE1786
:1006100011F081E08A8F4D8F5E8F6F8F78A383E01A
:10062000898FCE0149960E94FD03A096E2E10C94C9
:10063000930DA8E1B0E0EFE1F3E00C94830D698342
:100640007A838B839C832D833E834F83588789E0F5
:10065000E82EF12CEC0EFD1ECE010196B7010E9492
:10066000D2048E010F5E1F4FCE010596B8010E9485
:10067000D2048985823040F08989823028F0C70110
:10068000B8010E944A0501C08FEF6896E6E00C941D
:100690009F0DA8E1B0E0EFE4F3E00C94830D6983D3
:1006A0007A838B839C832D833E834F83588789E095
:1006B000E82EF12CEC0EFD1ECE010196B7010E9432
:1006C000D2048E010F5E1F4FCE010596B8010E9425
:1006D000D2048985823040F08989823028F0C701B0
:1006E000B8010E944A0501C08FEF6896E6E00C94BD
:1006F0009F0DA8E1B0E0EFE7F3E00C94830D698370
:100700007A838B839C832D833E834F83588789E034
:10071000E82EF12CEC0EFD1ECE010196B7010E94D1
:10072000D2048E010F5E1F4FCE010596B8010E94C4
:10073000D2048985823040F08989823028F0C7014F
:10074000B8010E944A0501C081E06896E6E00C9479
:100750009F0DACE0B0E0EFEAF3E00C94870D698305
:100760007A838B839C83CE010196BE016B5F7F4FA2
:100770000E94D2048D81823061F1823050F1843048
:1007800021F48E81882351F12EC02F81388537FDC9
:1007900020C06E812F3131051CF06623F9F023C093
:1007A0008EE190E0821B930B29853A854B855C8511
:1007B00004C056954795379527958A95D2F76623B5
:1007C000B1F050954095309521953F4F4F4F5F4F79
:1007D0000EC020E030E040E050E009C02FEF3FEFD6
:1007E0004FEF5FE704C020E030E040E050E8B9019F
:1007F000CA012C96E2E00C94A30DDF92EF92FF92D7
:100800000F931F93FC01E480F58006811781D1804E
:100810008081823048F480E090E0A0E1B0E0E82AF6
:10082000F92A0A2B1B2BA5C0843009F49FC0823003
:1008300021F4EE24FF24870105C0E114F104010531
:10084000110519F4E0E0F0E096C0628173819FEF3A
:10085000623879070CF05BC022E83FEF261B370BAC
:100860002A3131052CF020E030E040E050E02AC091
:10087000B801A701022E04C0769567955795479554
:100880000A94D2F781E090E0A0E0B0E004C0880FC5
:10089000991FAA1FBB1F2A95D2F70197A109B10979
:1008A0008E219F21A023B1230097A105B10521F03E
:1008B00081E090E0A0E0B0E09A01AB01282B392B59
:1008C0004A2B5B2BDA01C9018F779070A070B07052
:1008D00080349105A105B10539F427FF09C0205CDA
:1008E0003F4F4F4F5F4F04C0215C3F4F4F4F5F4F13
:1008F000E0E0F0E02030A0E03A07A0E04A07A0E402
:100900005A0710F0E1E0F0E079018A0127C0603871
:10091000710564F5FB01E158FF4FD801C7018F77DE
:100920009070A070B07080349105A105B10539F4C4
:10093000E7FE0DC080E490E0A0E0B0E004C08FE3EB
:1009400090E0A0E0B0E0E80EF91E0A1F1B1F17FFA1
:1009500005C016950795F794E794319687E01695AC
:100960000795F794E7948A95D1F705C0EE24FF2404
:100970008701EFEFF0E06E2F679566276795902F60
:100980009F77D794DD24D7948E2F8695492F462BB9
:10099000582F5D29B701CA011F910F91FF90EF9069
:1009A000DF900895FC01DB01408151812281622F9B
:1009B0006F7770E0221F2227221F9381892F880FD3
:1009C000822B282F30E0991F9927991F11969C930D
:1009D000119721153105A9F54115510561057105DD
:1009E00011F482E037C082E89FEF13969C938E93B8
:1009F00012979A01AB0167E0220F331F441F551F66
:100A00006A95D1F783E08C930DC0220F331F441FEA
:100A1000551F12968D919C911397019713969C9355
:100A20008E931297203080E0380780E0480780E4FA
:100A3000580758F314962D933D934D935C93179755
:100A400008952F3F310579F4411551056105710570
:100A500019F484E08C93089564FF03C081E08C93C3
:100A600012C01C9210C02F57304013963C932E9307
:100A7000129783E08C9387E0440F551F661F771F02
:100A80008A95D1F7706414964D935D936D937C9322
:100A9000179708951F93DC01FB019C91923008F495
:100AA00047C08081823008F443C0943051F41196DD
:100AB0001C91843099F58181682F70E0611B710968
:100AC0003FC0843021F0923031F48230B9F181811D
:100AD000882389F12DC011961C9111978230F1F075
:100AE00081811817D9F412962D913C911397828128
:100AF00093818217930794F028173907BCF0149656
:100B00008D919D910D90BC91A02D248135814681C0
:100B10005781281739074A075B0718F4112341F05A
:100B20000AC082179307A407B50740F4112319F0F0
:100B300061E070E005C06FEF7FEF02C060E070E041
:100B4000CB011F910895DF93CF9300D000D0CDB794
:100B5000DEB789836A8389818830A0F4A4E5B0E098
:100B6000E4E5F0E08781482F8981282F30E081E09B
:100B700090E002C0880F991F2A95E2F7842B179600
:100B80008C9317978981282F30E03C832B838B81AE
:100B90009C818630910559F02B813C8127303105AD
:100BA000C9F08B819C818530910571F148C0A4E525
:100BB000B0E0E4E5F0E081818C7F11968C93A4E5B0
:100BC000B0E0E4E5F0E091818A81892B11968C9365
:100BD000119735C0A4E5B0E0E4E5F0E08181837FC2
:100BE00011968C93A4E5B0E0E4E5F0E08181282F34
:100BF0008A81882F90E0880F991F880F991F822B78
:100C000011968C9311971BC0A4E5B0E0E4E5F0E0E9
:100C100080818F7B8C93A4E5B0E0E4E5F0E08081F7
:100C2000282F8A81882F90E0002496958795079435
:100C3000969587950794982F802D822B8C930F90F3
:100C40000F900F900F90CF91DF910895DF93CF9386
:100C50000F92CDB7DEB7898389818830B0F4A4E5DF
:100C6000B0E0E4E5F0E08781482F8981282F30E06B
:100C700081E090E0022E02C0880F991F0A94E2F7EB
:100C80008095842317968C9317970F90CF91DF91BF
:100C90000895DF93CF9300D000D00F92CDB7DEB789
:100CA00089837B836A838981282F30E03D832C836D
:100CB0008C819D818630910559F02C813D812730B2
:100CC000310569F08C819D818530910579F014C0E2
:100CD0008A819B819093D1008093D0000DC08A813E
:100CE0009B819093D3008093D20006C08A819B8120
:100CF0009093D5008093D4000F900F900F900F9099
:100D00000F90CF91DF9108951F920F920FB60F921F
:100D100011242F933F934F935F936F937F938F9300
:100D20009F93AF93BF93EF93FF93DF93CF93CDB791
:100D3000DEB78091D0009091D100009729F0E0912A
:100D4000D000F091D1000995CF91DF91FF91EF9103
:100D5000BF91AF919F918F917F916F915F914F91D3
:100D60003F912F910F900FBE0F901F9018951F92DB
:100D70000F920FB60F9211242F933F934F935F93CF
:100D80006F937F938F939F93AF93BF93EF93FF9353
:100D9000DF93CF93CDB7DEB78091D2009091D3008F
:100DA000009729F0E091D200F091D3000995CF91FE
:100DB000DF91FF91EF91BF91AF919F918F917F91C3
:100DC0006F915F914F913F912F910F900FBE0F90B8
:100DD0001F9018951F920F920FB60F9211242F9308
:100DE0003F934F935F936F937F938F939F93AF93B3
:100DF000BF93EF93FF93DF93CF93CDB7DEB780918F
:100E0000D4009091D500009729F0E091D400F091A2
:100E1000D5000995CF91DF91FF91EF91BF91AF91EF
:100E20009F918F917F916F915F914F913F912F9102
:100E30000F900FBE0F901F901895DF93CF9300D0A7
:100E40000F92CDB7DEB79A838983E981FA818081D9
:100E5000843070F5E981FA818181882381F4E98108
:100E6000FA818081882F90E0880F991FFC01E85952
:100E7000FF4F0190F081E02D10821B821BC0E981A1
:100E8000FA8181818F3F89F4E981FA818081882FFD
:100E900090E0880F991FFC01E859FF4F0190F08105
:100EA000E02D8FEF80831B8205C081E08B8302C021
:100EB00081E08B838B810F900F900F90CF91DF910A
:100EC0000895DF93CF9300D00F92CDB7DEB79A830A
:100ED0008983E981FA818081843008F06CC0E981DE
:100EE000FA818181883008F066C0E981FA818281C7
:100EF000882369F5E981FA818081882F90E0880F45
:100F0000991FFC01E859FF4FA081B181E981FA8165
:100F10008081882F90E0880F991FFC01E859FF4FCE
:100F20000190F081E02D8081482FE981FA81818153
:100F3000282F30E081E090E0022E02C0880F991F38
:100F40000A94E2F7809584238C931B8236C0E98152
:100F5000FA818281813061F5E981FA818081882F6F
:100F600090E0880F991FFC01E859FF4FA081B181E3
:100F7000E981FA818081882F90E0880F991FFC0118
:100F8000E859FF4F0190F081E02D8081482FE981E1
:100F9000FA818181282F30E081E090E0022E02C0AA
:100FA000880F991F0A94E2F7842B8C931B8205C04B
:100FB00081E08B8302C081E08B838B810F900F9047
:100FC0000F90CF91DF910895DF93CF9300D00F92D0
:100FD000CDB7DEB79A83898389819A810097D1F052
:100FE000E981FA818081843090F4E981FA818081FD
:100FF000882F90E0880F991FFC01E059FF4FA081D6
:10100000B181E981FA8183818C931B8205C081E0E3
:101010008B8302C081E08B838B810F900F900F90A8
:10102000CF91DF910895DF93CF9300D00F92CDB78A
:10103000DEB79A83898389819A81009709F475C004
:10104000E981FA818081843008F06CC0E981FA81FD
:101050008181883008F066C0E981FA81838181301E
:1010600061F5E981FA818081882F90E0880F991FCE
:10107000FC01E059FF4FA081B181E981FA818081B3
:10108000882F90E0880F991FFC01E059FF4F0190D5
:10109000F081E02D8081482FE981FA818181282F1C
:1010A00030E081E090E0022E02C0880F991F0A9480
:1010B000E2F7842B8C931B823AC0E981FA81838109
:1010C000882369F5E981FA818081882F90E0880F73
:1010D000991FFC01E059FF4FA081B181E981FA819C
:1010E0008081882F90E0880F991FFC01E059FF4F05
:1010F0000190F081E02D8081482FE981FA81818182
:10110000282F30E081E090E0022E02C0880F991F66
:101110000A94E2F7809584238C931B8208C081E0B7
:101120008B8305C081E08B8302C081E08B838B8140
:101130000F900F900F90CF91DF910895DF93CF9391
:1011400000D00F92CDB7DEB79A83898389819A81C7
:101150000097C9F1E981FA818081843088F5E981BD
:10116000FA818181883060F5E981FA818081882F58
:1011700090E0880F991FFC01E059FF4FA081B181D9
:10118000E981FA818081882F90E0880F991FFC0106
:10119000E059FF4F0190F081E02D8081482FE981D7
:1011A000FA818181282F30E081E090E0022E02C098
:1011B000880F991F0A94E2F784278C931B8205C03D
:1011C00081E08B8302C081E08B838B810F900F9035
:1011D0000F90CF91DF910895DF93CF9300D0CDB7DB
:1011E000DEB7898389818430D0F48981882F90E0AB
:1011F000880F991FFC01E059FF4FA081B1818981BF
:10120000882F90E0880F991FFC01E059FF4F019053
:10121000F081E02D808180958C931A8202C081E05C
:101220008A838A810F900F90CF91DF910895DF9389
:10123000CF9300D000D00F92CDB7DEB79A838983C9
:101240007C836B8389819A81009799F18B819C8142
:10125000009779F1E981FA818081843038F5E9815C
:10126000FA818181883010F5E981FA818081882FA7
:1012700090E0880F991FFC01E858FF4F0190F08122
:10128000E02D8081282F30E0E981FA818181882F4B
:1012900090E0A90102C0559547958A95E2F7CA01E9
:1012A0008170EB81FC8180831D8205C051E05D83EC
:1012B00002C081E08D838D810F900F900F900F9071
:1012C0000F90CF91DF910895DF93CF9300D000D09E
:1012D000CDB7DEB789837B836A838A819B81009740
:1012E000B9F08981843088F48981882F90E0880F53
:1012F000991FFC01E858FF4F0190F081E02D80819B
:10130000EA81FB8180831C8205C081E08C8302C05E
:1013100081E08C838C810F900F900F900F90CF9174
:10132000DF910895DF93CF93CDB7DEB7A1970FB6C6
:10133000F894DEBF0FBECDBF80E2FE013296DF0122
:10134000982F1D929A95E9F781E08A8381E08C833A
:1013500081E08E8381E08F8381E0888781E08A87C6
:1013600082E08B8781E08C8781E08E8784E08F87A5
:1013700081E0888B81E08A8B86E08B8B81E08C8B8F
:1013800081E08E8B85E08F8B81E0888F82E08B8F70
:1013900081E08C8F83E08F8F81E088A319821FC04A
:1013A0008981882F90E09C01220F331F220F331F69
:1013B000CE010296820F931F0E9461078981882FB8
:1013C00090E09C01220F331F220F331FCE010296A3
:1013D000820F931F0E94130889818F5F89838981FF
:1013E0008830F0F2A1960FB6F894DEBF0FBECDBFE5
:1013F000CF91DF910895DF93CF93CDB7DEB7E39719
:101400000FB6F894DEBF0FBECDBF88A769A7AE01A7
:101410004C5F5F4F5BA74AA780E990E09DA78CA730
:1014200090E19EA7ECA5FDA500804CA55DA54F5FB2
:101430005F4F5DA74CA7EAA5FBA500824AA55BA567
:101440004F5F5F4F5BA74AA75EA551505EA78EA571
:10145000882341F71B8211C08B81882F90E09C016B
:10146000220F331F220F331FCE010496820F931FCA
:101470000E9413088B818F5F8B838B81843060F394
:10148000FE017496F8ABEFA740E850E05AAB49ABC9
:1014900050E15BABE9A9FAA9008049A95AA94F5FBD
:1014A0005F4F5AAB49ABEFA5F8A900824FA558A9E9
:1014B0004F5F5F4F58AB4FA75BA951505BAB8BA9F8
:1014C000882341F789A58823C1F089A58530A8F430
:1014D00089A5282F30E081E090E0821B930B880FD4
:1014E000991F880F991F22273327281B390BCE01FC
:1014F0004496820F931F0E94130881E08CA381E021
:101500008EA31A821AC08A818DA388A5282F30E065
:101510008A81882F90E0F90102C0F595E7958A95B8
:10152000E2F7CF018170898389818FA3CE018496F0
:101530000E9413088A818F5F8A838A81843018F31E
:10154000E3960FB6F894DEBF0FBECDBFCF91DF910B
:101550000895DF93CF93CDB7DEB7C455D0400FB613
:10156000F894DEBF0FBECDBFCE01449628969FAF44
:101570008EAF2897E0ECF0E02A96FFAFEEAF2A9707
:10158000F0E12B96FFAF2B972A96EEADFFAD2A9791
:1015900000802A968EAD9FAD2A9701962A969FAF1E
:1015A0008EAF2A972896EEADFFAD28970082289639
:1015B0008EAD9FAD2897019628969FAF8EAF289746
:1015C0002B969FAD2B9791502B969FAF2B972B96D9
:1015D000EFAD2B97EE23C1F6CE0184962D969FAFEB
:1015E0008EAF2D97E0EBF0E02F96FFAFEEAF2F9789
:1015F000F0E16096FFAF60972F96EEADFFAD2F97AD
:1016000000802F968EAD9FAD2F9701962F969FAF9E
:101610008EAF2F972D96EEADFFAD2D9700822D96B4
:101620008EAD9FAD2D9701962D969FAF8EAF2D97C6
:1016300060969FAD6097915060969FAF609760965F
:10164000EFAD6097EE23C1F6CE01C49662969FAFD0
:101650008EAF6297E0EAF0E06496FFAFEEAF64977A
:10166000F0E16596FFAF65976496EEADFFAD6497C8
:10167000008064968EAD9FAD6497019664969FAF8F
:101680008EAF64976296EEADFFAD62970082629670
:101690008EAD9FAD6297019662969FAF8EAF6297B7
:1016A00065969FAD6597915065969FAF65976596D6
:1016B000EFAD6597EE23C1F6198A3BC08989882F63
:1016C00090E09C01220F331F220F331FCE0184961E
:1016D000820F931F0E9461078989882F90E09C01E7
:1016E000220F331F220F331FCE01C496820F931F88
:1016F0000E9461078989882F90E09C01220F331F87
:10170000220F331FCE018496820F931F0E9413086D
:101710008989882F90E09C01220F331F220F331FED
:10172000CE01C496820F931F0E94130889898F5F90
:10173000898B8989843010F2188AE7C08889882FBC
:1017400090E09C01220F331F220F331FCE01019620
:10175000820F931FFC01F69610828889882F90E0F3
:101760009C01220F331F220F331FCE01C496820F1C
:10177000931F0E9413081F8632C08889882F90E02B
:101780009C01220F331F220F331FCE018496820F3C
:10179000931F9E012C5B3F4FB9010E941709FE0168
:1017A000EC5BFF4F80818823B9F48889282F30E0D3
:1017B0008F85482F50E0220F331F220F331FCE0199
:1017C0000196820F931F840F951FFC0173968081F1
:1017D00026968FAF2697A0C08F858F5F8F878F85C6
:1017E000843058F28889882F90E09C01220F331FA3
:1017F000220F331FCE010196820F931FFC01F69634
:1018000081E080838889882F90E09C01220F331F1C
:10181000220F331FCE01C496820F931F0E9413081C
:1018200080E090E0A0EAB1E48B879C87AD87BE871B
:101830006B857C858D859E8520E030E04AE753E40A
:101840000E941F02DC01CB018F839887A987BA878A
:101850006F81788589859A8520E030E040E85FE3F4
:101860000E94790388232CF481E090E09E838D838D
:101870003FC06F81788589859A8520E03FEF4FE7EB
:1018800057E40E94190318164CF56B857C858D85ED
:101890009E8520E030E040E251E40E941F02DC011E
:1018A000CB01BC01CD010E944900DC01CB019E832C
:1018B0008D830FC089E190E09C838B838B819C8119
:1018C0000197F1F79C838B838D819E8101979E8385
:1018D0008D838D819E81009769F714C06F81788513
:1018E00089859A850E944900DC01CB019E838D8306
:1018F0008D819E819A83898389819A810197F1F7ED
:101900009A83898388898F5F888B8889843008F4DB
:1019100015CF26961FAE269726968FAD2697CC5AC2
:10192000DF4F0FB6F894DEBF0FBECDBFCF91DF9172
:101930000895DF93CF9300D000D0CDB7DEB78A8370
:1019400019828A81282F30E03C832B838B819C81F4
:101950008830910509F470C02B813C812930310514
:101960005CF58B819C818430910509F459C02B81F1
:101970003C81253031059CF48B819C81823091051E
:1019800009F448C02B813C81233031050CF045C05F
:101990008B819C818130910509F439C067C02B810E
:1019A0003C812630310509F441C08B819C81873010
:1019B00091050CF03EC037C02B813C812C303105A5
:1019C00009F446C08B819C818D3091055CF42B819C
:1019D0003C812A303105B1F18B819C818B3091059E
:1019E000A4F52DC02B813C812E303105B9F18B81BE
:1019F0009C818E3091057CF12B813C812F3031050B
:101A000079F18B819C818031910569F12FC087E04C
:101A100089832EC088E089832BC089E0898328C010
:101A200085E2898325C084E0898322C085E089839B
:101A30001FC086E089831CC08AE2898319C081E0C7
:101A4000898316C082E0898313C083E0898310C034
:101A50008DE289830DC08DE089830AC0198208C098
:101A60008DE3898305C08BE2898302C08A818983E3
:101A700089810F900F900F900F90CF91DF91089573
:101A8000DF93CF9300D000D0CDB7DEB7198281E0CD
:101A90008B8386E08A8381E08C83CE0101960E944D
:101AA0006107CE0101960E9413080F900F900F90CE
:101AB0000F90CF91DF910895DF93CF9300D000D0A6
:101AC000CDB7DEB783E089831B8283E08A83CE01B2
:101AD00001960E946107789487E062E00E94A30566
:101AE00020E43DE087E0B9010E944906FFCF2F9234
:101AF0003F924F925F926F927F928F929F92AF929E
:101B0000BF92CF92DF92EF92FF920F931F93CF93EA
:101B1000DF93CDB7DEB7CA1BDB0B0FB6F894DEBF81
:101B20000FBECDBF09942A88398848885F846E84A7
:101B30007D848C849B84AA84B984C884DF80EE80F1
:101B4000FD800C811B81AA81B981CE0FD11D0FB6FA
:101B5000F894DEBF0FBECDBFED010895F894FFCF1E
:101B600000000000000000003A003700340031009F
:101B70003B003800350032003900360033003000B9
:101B8000000301000002010001050100010601003F
:101B9000000201010003010101050101010601012B
:101BA0000205010102040101020301010202010117
:101BB0000307000103060001030500010303000100
:101BC0003132332B3435362D3738392A2A30232F0A
:00000001FF
