:100000000C943A000C943D070C9466070C948F07EF
:100010000C9457000C9457000C94FA080C94D108D7
:100020000C9457000C9466080C943D080C94E4075B
:100030000C94BA070C9439090C9457000C9457008F
:100040000C947B060C9457000C9457000C945700AA
:100050000C945700C703E303C903CB03CD03CF03BD
:10006000D103D303D503D703D903DB03E403DD03B3
:10007000DF03E10311241FBECFE5D8E0DEBFCDBF13
:1000800011E0A0E6B0E0E6EDF2E102C005900D92CD
:10009000A036B107D9F721E0A0E6B1E001C01D927A
:1000A000A33BB207E1F70E9425010C9469090C9467
:1000B00000000E94770688EB90E00E94510624E63B
:1000C00042E06FEF81E00E9408020E944F0202C0EE
:1000D0000E944F028111FCCF81E00E9483020E94A6
:1000E0004F0282E00E9483020E94C70261E070E03A
:1000F00081E00E94FB0208950E94770688EB90E061
:100100000E94510624E642E06FEF81E00E9408025F
:100110000E944F0202C00E944F028111FCCF81E079
:100120000E9483020E944F0282E00E9483020E948A
:10013000C70244E050E061E070E081E00E944003CB
:100140002FEF33ED90E3215030409040E1F700C0B5
:10015000000008950E9477068AEC90E00E94510604
:1001600087ED90E00E94510664E082E00E94640600
:1001700080EE90E00E94510624E643E06FEF82E0BB
:100180000E9408020895CF93DF93CDB7DEB728977A
:100190000FB6F894DEBF0FBECDBF88E0E0E6F0E01A
:1001A000DE01119601900D928A95E1F7CE0101963C
:1001B0000E949406CE0105960E9494060E9477063E
:1001C00060E081E00E94640682EF90E00E945106A8
:1001D00064E082E00E9464068EEF90E00E94510687
:1001E0000E94E5038130C1F413C0812F90E0880F95
:1001F000991F880F991F21E030E02C0F3D1F820FBF
:10020000931F21E0FC0123830E94D2061F5F01C0DF
:1002100010E0123050F3E4CF823011F712C0812F7A
:1002200090E0880F991F880F991F21E030E02C0F74
:100230003D1F820F931FFC0113820E94D2061F5F95
:1002400001C010E0123058F3CBCF0E94B8070E94D3
:1002500023090E9489050E9402022FEF89E698E196
:10026000215080409040E1F700C000000E947706D6
:100270000E94AA000E94E5038130B1F50E94590056
:10028000811116C00E9477068AE091E00E94510613
:1002900024E642E06FEF83E00E9408022FEF87EA36
:1002A00091E6215080409040E1F700C00000DECF91
:1002B0000E9477068BE191E00E94510624E641E01E
:1002C0006FEF83E00E9408022FEF87EA91E621504A
:1002D00080409040E1F700C0000024E641E06FEF6D
:1002E00084E00E940802C2CF8230B9F50E947C00EF
:1002F000811117C00E94770680E391E00E945106A9
:1003000024E642E06FEF83E00E9408022FEF87EAC5
:1003100091E6215080409040E1F700C000000E942B
:10032000C3000E9477068BE191E00E94510624E60B
:1003300041E06FEF83E00E9408022FEF87EA91E629
:10034000215080409040E1F700C0000024E641E0E9
:100350006FEF84E00E94080289CF833009F086CFD6
:100360000E948803811110C00E9477068BE391E000
:100370000E9451062FEF87EA91E62150804090407D
:10038000E1F700C0000072CF0E9477068BE191E098
:100390000E94510624E641E06FEF83E00E940802CC
:1003A0002FEF87EA91E6215080409040E1F700C0AE
:1003B000000024E641E06FEF84E00E94080256CF7F
:1003C000E0916001F0E0EB56FE4F80838091600188
:1003D0008F5F809360010895DC0146E050E080E08B
:1003E00090E008C0FD01E40FF51F2081820F911DF0
:1003F0004F5F5F4F262F30E02250310942175307DD
:100400008CF3089580EE91E00E9431098DE108950A
:100410001F93CF93DF93CDB7DEB760970FB6F894F5
:10042000DEBF0FBECDBF9FEE998331E03A839FEFD1
:100430009B839C839D839E833F83188697E0998747
:1004400095E39A878B876C874D872E871F86188A3E
:1004500060E1CE0101960E94EC019F87888B10E03D
:100460000AC0E1E0F0E0EC0FFD1FE10FF11D80811B
:100470000E942D091F5F1031A0F3809160018C3024
:10048000E0F380919E011092600160960FB6F8949F
:10049000DEBF0FBECDBFDF91CF911F9108951F9397
:1004A000CF93DF93CDB7DEB72C970FB6F894DEBFAE
:1004B0000FBECDBF8CE0E4E7F0E0DE0111960190C5
:1004C0000D928A95E1F710E00AC0E1E0F0E0EC0F50
:1004D000FD1FE10FF11D80810E942D091F5F1C305F
:1004E000A0F3809160018C30E0F380919E01109226
:1004F00060012C960FB6F894DEBF0FBECDBFDF9122
:10050000CF911F9108951F93CF93DF93CDB7DEB79F
:100510002D970FB6F894DEBF0FBECDBF9FEE998327
:1005200021E02A839FEF9B839C839D839E832F835F
:10053000188694E0998792E09A878B871C861D869F
:100540006DE0CE0101960E94EC019C878D8710E042
:100550000AC0E1E0F0E0EC0FFD1FE10FF11D80812A
:100560000E942D091F5F1D30A0F3809160018C3027
:10057000E0F380919E01109260012D960FB6F894E1
:10058000DEBF0FBECDBFDF91CF911F9108951F93A6
:10059000CF93DF93CDB7DEB72C970FB6F894DEBFBD
:1005A0000FBECDBF8CE0E0E8F0E0DE0111960190D7
:1005B0000D928A95E1F710E00AC0E1E0F0E0EC0F5F
:1005C000FD1FE10FF11D80810E942D091F5F1C306E
:1005D000A0F3809160018C30E0F380919E01109235
:1005E00060012C960FB6F894DEBF0FBECDBFDF9131
:1005F000CF911F9108951F93CF93DF93CDB7DEB7AF
:100600002F970FB6F894DEBF0FBECDBF9FEE998334
:1006100021E02A839FEF9B839C839D839E832F836E
:10062000188696E099879A878B877C876D871E86C8
:100630001F866FE0CE0101960E94EC019E878F8796
:1006400010E00AC0E1E0F0E0EC0FFD1FE10FF11D4A
:1006500080810E942D091F5F1F30A0F380916001EF
:100660008C30E0F380919E01109260012F960FB6BE
:10067000F894DEBF0FBECDBFDF91CF911F910895DB
:100680001F93CF93DF93CDB7DEB761970FB6F89482
:10069000DEBF0FBECDBF9FEE998321E02A839FEF7F
:1006A0009B839C839D839E832F83188698E09987E4
:1006B00094E09A878B877C876D875E874F87188A3F
:1006C000198A61E1CE0101960E94EC01988B898B19
:1006D00010E00AC0E1E0F0E0EC0FFD1FE10FF11DBA
:1006E00080810E942D091F5F1131A0F3809160016C
:1006F0008031E0F380919E011092600161960FB607
:10070000F894DEBF0FBECDBFDF91CF911F9108954A
:100710001F93CF93DF93CDB7DEB72C970FB6F89426
:10072000DEBF0FBECDBF8CE0ECE8F0E0DE0111963D
:1007300001900D928A95E1F710E00AC0E1E0F0E047
:10074000EC0FFD1FE10FF11D80810E942D091F5F3D
:100750001C30A0F3809160018C30E0F380919E0109
:10076000109260012C960FB6F894DEBF0FBECDBF7D
:10077000DF91CF911F910895482F50E0FA013197F2
:10078000E031F10508F5E65DFF4F0C94630987E061
:10079000089589E0089585E2089584E0089585E04C
:1007A000089586E008958AE2089581E0089582E040
:1007B000089583E008958DE2089580E008958DE323
:1007C00008958BE2089588E008959F92AF92BF92BA
:1007D000CF92DF92EF92FF920F931F93CF93DF930D
:1007E000CDB7DEB7A1970FB6F894DEBF0FBECDBF71
:1007F000198280E1E8E9F0E0DE01129601900D92A5
:100800008A95E1F7FE01729680E1DF011D928A95DB
:10081000E9F782E08A8B95E09B8B91E09C8B8E8B35
:1008200024E02F8B988F8A8F23E02B8F9C8F8E8FC5
:100830008F8F98A3D12C1BC0ED2CF12CEE0CFF1C3C
:10084000EE0CFF1C02E010E00C0F1D1F0E0D1F1D13
:10085000C8010E94940682E190E08C0F9D1F8E0DCE
:100860009F1D0E949406C8010E94D206D394B3E053
:10087000BD1510F7A12C912C58C0E92CF12C670163
:10088000CC0CDD1CCC0CDD1CE1E0F0E0EC0FFD1F1E
:10089000EC0DFD1D148A82E190E08C0F9D1FC80EA7
:1008A000D91EC6010E94D206B12C2CC00B2D10E01F
:1008B000000F111F000F111FA2E0B0E0AC0FBD1F11
:1008C0000A0F1B1FBE016F5F7F4FC8010E941407F4
:1008D0009981911115C0B1E0AB1212C006C0BE01E2
:1008E0006F5F7F4FC8010E94140789818130B9F77B
:1008F000892D880F880F8B0D8F5F0E94BC031AC053
:10090000B394A92E83E08B1588F6EE0CFF1CEE0C39
:10091000FF1CE1E0F0E0EC0FFD1FEE0DFF1D81E09C
:10092000848BC6010E94D206939493E0991508F037
:10093000A4CFA1CFA1960FB6F894DEBF0FBECDBF56
:10094000DF91CF911F910F91FF90EF90DF90CF90AB
:10095000BF90AF909F9008950F931F93CF93DF9315
:10096000CDB7DEB764970FB6F894DEBF0FBECDBF2C
:10097000082F81E089831A828B8304FB992790F9E1
:100980009C838D838E838F8305FB992790F99887AD
:10099000898792E09A878B8706FB992790F99C8735
:1009A0008D8794E09E878F87802F881F8827881FD8
:1009B000888B10E00FC0812F90E0880F991F880F5F
:1009C000991F21E030E02C0F3D1F820F931F0E94E2
:1009D000D2061F5F143078F3198A82E08A8B1C8A52
:1009E0008FE99FE00197F1F700C00000CE0141962A
:1009F0000E94D206EFE9FFE03197F1F700C0000056
:100A000081E08C8BCE0141960E94D2068FE99FE057
:100A10000197F1F700C0000010E01AC0812F90E0AC
:100A2000202F30E0012E02C0359527950A94E2F779
:100A3000880F991F880F991FE1E0F0E0EC0FFD1F70
:100A40008E0F9F1F2170FC0123830E94D2061F5F1F
:100A5000143020F38FE99FE00197F1F700C0000008
:100A60001C8ACE0141960E94D206EFE9FFE0319741
:100A7000F1F700C0000064960FB6F894DEBF0FBE19
:100A8000CDBFDF91CF911F910F9108950F931F93C9
:100A9000CF93DF93CDB7DEB728970FB6F894DEBFBC
:100AA0000FBECDBF082F88E0E8EAF0E0DE01119626
:100AB00001900D928A95E1F710E015C0812F90E02A
:100AC000880F991F880F991F21E030E02C0F3D1FE0
:100AD000820F931F0E94D2068FE99FE00197F1F7E2
:100AE00000C000001F5F123048F38FE99FE00197BC
:100AF000F1F700C00000802F0E94AC0428960FB6CA
:100B0000F894DEBF0FBECDBFDF91CF911F910F9143
:100B100008951F93CF93DF93CDB7DEB768970FB6D5
:100B2000F894DEBF0FBECDBFFE01319688E0DF0135
:100B30001D928A95E9F783E08A8381E08B8392E0B6
:100B40009E838F8310E00FC0812F90E0880F991F44
:100B5000880F991F21E030E02C0F3D1F820F931F5B
:100B60000E9494061F5F123078F3FE01399680E1EF
:100B7000DF011D928A95E9F781E089878B878D8750
:100B80008E878F87898B92E09A8B8B8B8D8B94E0ED
:100B90009E8B8F8B10E00FC0812F90E0880F991FE4
:100BA000880F991F29E030E02C0F3D1F820F931F03
:100BB0000E9494061F5F143078F382E00E9446057D
:100BC0008FE99FE00197F1F700C0000088E20E94E2
:100BD0004605AFE9BFE01197F1F700C000008FE0D4
:100BE0000E9446058FE99FE00197F1F700C00000E1
:100BF00081E00E944605AFE3BFE11197F1F700C025
:100C0000000086E00E94460568960FB6F894DEBFA5
:100C10000FBECDBFDF91CF911F9108950F931F930A
:100C2000CF93DF93CDB7DEB728970FB6F894DEBF2A
:100C30000FBECDBF082F88E0E0EBF0E0DE0111969B
:100C400001900D928A95E1F710E015C0812F90E098
:100C5000880F991F880F991F21E030E02C0F3D1F4E
:100C6000820F931F0E94D2068FE99FE00197F1F750
:100C700000C000001F5F123048F38FE99FE001972A
:100C8000F1F700C00000802F0E94AC0428960FB638
:100C9000F894DEBF0FBECDBFDF91CF911F910F91B2
:100CA00008950F931F93CF938C01C0E003C00E945F
:100CB0000E06CF5FF801EC0FF11D80818111F7CF97
:100CC000CF911F910F910895813039F058F0823003
:100CD00031F0833031F060E005C0605C03C0605FDC
:100CE00001C0605B862F80680E944605089581E000
:100CF0000E944605089524B130E00024220F331FDE
:100D0000001C220F331F001C232F302D85B190E0D3
:100D1000880F991F880F991FE0916101F09162017E
:100D2000822B932B09950895DC01EC91E430A0F51A
:100D300011962C911197283088F512968C9181117B
:100D400015C0F0E0EE0FFF1FE85AFE4F0190F08152
:100D5000E02D81E090E002C0880F991F2A95E2F70C
:100D6000809590818923808380E008958130C1F44B
:100D7000F0E0EE0FFF1FE85AFE4F0190F081E02DEA
:100D800081E090E002C0880F991F2A95E2F79081D8
:100D9000892B808380E0089581E0089581E00895A3
:100DA00081E008950097C1F1DC01EC91E430B0F5E9
:100DB00011962C911197283098F513968C918130CB
:100DC000A1F4F0E0EE0FFF1FE05BFE4F0190F08119
:100DD000E02D81E090E002C0880F991F2A95E2F78C
:100DE0009081892B808380E0089581111BC0F0E001
:100DF000EE0FFF1FE05BFE4F0190F081E02D81E0E0
:100E000090E002C0880F991F2A95E2F780959081A3
:100E10008923808380E0089581E0089581E008952A
:100E200081E0089581E008950097F9F0611571055A
:100E3000F1F0DC01EC91E430E0F411962C912830D3
:100E4000D0F4F0E0EE0FFF1FE85BFE4F0190F08161
:100E5000E02D808190E002C0959587952A95E2F774
:100E60008170FB01808380E0089581E0089581E036
:100E7000089581E0089581E008951F920F920FB6C2
:100E80000F9211242F933F934F935F936F937F9310
:100E90008F939F93AF93BF93EF93FF93E091630181
:100EA000F0916401309709F00995FF91EF91BF919E
:100EB000AF919F918F917F916F915F914F913F91F2
:100EC0002F910F900FBE0F901F9018951F920F92A9
:100ED0000FB60F9211242F933F934F935F936F930D
:100EE0007F938F939F93AF93BF93EF93FF93E09183
:100EF0006501F0916601309709F00995FF91EF9136
:100F0000BF91AF919F918F917F916F915F914F9121
:100F10003F912F910F900FBE0F901F9018951F9229
:100F20000F920FB60F9211242F933F934F935F931D
:100F30006F937F938F939F93AF93BF93EF93FF93A1
:100F4000E0916701F0916801309709F00995FF91F0
:100F5000EF91BF91AF919F918F917F916F915F9131
:100F60004F913F912F910F900FBE0F901F901895AA
:100F7000789408951F920F920FB60F9211242F9319
:100F80003F934F935F936F937F938F939F93AF9311
:100F9000BF93EF93FF93E0916901F0916A0130975D
:100FA00011F08FB10995FF91EF91BF91AF919F9192
:100FB0008F917F916F915F914F913F912F910F9002
:100FC0000FBE0F901F9018951F920F920FB60F92A1
:100FD00011242F933F934F935F936F937F938F933E
:100FE0009F93AF93BF93EF93FF9380916F01909185
:100FF0007001892B89F180916B0190916C01A09116
:101000006D01B0916E010196A11DB11D80936B0120
:1010100090936C01A0936D01B0936E0140917701A4
:10102000509178016091790170917A018417950748
:10103000A607B70789F480917301819582BF10924A
:101040006B0110926C0110926D0110926E01E09193
:101050006F01F09170010995FF91EF91BF91AF91F0
:101060009F918F917F916F915F914F913F912F91C0
:101070000F900FBE0F901F9018951F920F920FB6F2
:101080000F9211242F933F934F935F936F937F930E
:101090008F939F93AF93BF93EF93FF93E091710171
:1010A000F0917201309709F00995FF91EF91BF918E
:1010B000AF919F918F917F916F915F914F913F91F0
:1010C0002F910F900FBE0F901F9018951F920F92A7
:1010D0000FB60F9211242F933F934F935F936F930B
:1010E0007F938F939F93AF93BF93CF93DF93EF93B0
:1010F000FF93CFE7D1E0E881F981099580918701DD
:1011000090918801A0918901B0918A010196A11D59
:10111000B11D8093870190938801A0938901B093BA
:101120008A01E881F981309749F180917B019091A2
:101130007C01A0917D01B0917E010196A11DB11DA0
:1011400080937B0190937C01A0937D01B0937E01FD
:1011500040918B0150918C0160918D0170918E01B5
:1011600084179507A607B70749F410927B011092E0
:101170007C0110927D0110927E010995FF91EF9103
:10118000DF91CF91BF91AF919F918F917F916F919F
:101190005F914F913F912F910F900FBE0F901F9035
:1011A00018951F920F920FB60F9211242F933F9311
:1011B0004F935F936F937F938F939F93AF93BF935F
:1011C000EF93FF93E0918101F0918201309709F054
:1011D0000995FF91EF91BF91AF919F918F917F9171
:1011E0006F915F914F913F912F910F900FBE0F9094
:1011F0001F9018951F920F920FB60F9211242F93E4
:101200003F934F935F936F937F938F939F93AF938E
:10121000BF93EF93FF93E0918501F09186013097A2
:1012200009F00995FF91EF91BF91AF919F918F9137
:101230007F916F915F914F913F912F910F900FBED2
:101240000F901F90189582E08BB988E18AB986E8E3
:1012500080BD10BC81E289B908955D9BFECF8CB939
:1012600008952AB120682AB99093900180938F0144
:1012700008951F920F920FB60F9211242F933F9350
:101280004F935F936F937F938F939F93AF93BF938E
:10129000EF93FF938CB1E0918F01F0919001309723
:1012A00009F00995FF91EF91BF91AF919F918F91B7
:1012B0007F916F915F914F913F912F910F900FBE52
:1012C0000F901F901895EE0FFF1F0590F491E02DE1
:0612D0000994F894FFCF21
:1012D6000005010100060101EF01FFFFFFFF01000C
:1012E60003400044EF01FFFFFFFF0100030100057B
:1012F600EF01FFFFFFFF010003050009EF01FFFFFC
:10130600FFFF0100030D00110307000103060001A2
:1013160003050001030300010003010000020101AF
:101326000003010100020101506C61636520796FC1
:1013360075722066696E67657200312D2052656789
:1013460069737465722000322D204C6F67696E00D8
:10135600332D20456D70747920465020466C61739C
:101366006800312D204C454453204F4E2000322D2D
:10137600204C454453204F464600204E6577205565
:101386007365722041646465642000204572726F43
:101396007220506C732054727920416761696E0027
:1013A60048656C6C6F205573657200466C61736896
:1013B60020457261736564003900360033003000E1
:1013C6003B003800350032003A0037003400310067
:00000001FF
