:100000000C942A000C944D020C9476020C949F02DE
:100010000C9447000C9447000C9447000C94470044
:100020000C9447000C9447000C9447000C94470034
:100030000C9447000C9447000C9447000C94470024
:100040000C94B4010C9447000C9447000C944700A6
:100050000C94470011241FBECFE5D8E0DEBFCDBF12
:1000600010E0A0E6B0E0E4E9F5E002C005900D92F2
:10007000A038B107D9F720E0A0E8B0E001C01D9298
:10008000A838B207E1F70E9449000C94C8020C940A
:10009000000083ED90E30197F1F700C000000E949B
:1000A0002F01FFCF0F931F93CF93DF93CDB7DEB711
:1000B00064970FB6F894DEBF0FBECDBF082F81E066
:1000C00089831A828B8304FB992790F99C838D8303
:1000D0008E838F8305FB992790F99887898792E013
:1000E0009A878B8706FB992790F99C878D8794E0E8
:1000F0009E878F87802F881F8827881F888B10E016
:100100000FC0812F90E0880F991F880F991F21E061
:1001100030E02C0F3D1F820F931F0E940B021F5FC8
:10012000143078F3198A82E08A8B1C8A89EF90E078
:100130000197F1F700C00000CE0141960E940B022A
:10014000E9EFF0E03197F1F700C0000081E08C8B1F
:10015000CE0141960E940B0289EF90E00197F1F7E2
:1001600000C0000010E01AC0812F90E0202F30E086
:10017000012E02C0359527950A94E2F7880F991F42
:10018000880F991FE1E0F0E0EC0FFD1F8E0F9F1F1D
:100190002170FC0123830E940B021F5F143020F3A7
:1001A00089EF90E00197F1F700C000001C8ACE01B2
:1001B00041960E940B02E9EFF0E03197F1F700C0A1
:1001C000000064960FB6F894DEBF0FBECDBFDF917E
:1001D000CF911F910F9108950F931F93CF93DF93AA
:1001E000CDB7DEB728970FB6F894DEBF0FBECDBFF0
:1001F000082F88E0E0E6F0E0DE01119601900D9214
:100200008A95E1F710E015C0812F90E0880F991FC3
:10021000880F991F21E030E02C0F3D1F820F931FA4
:100220000E940B0289EF90E00197F1F700C00000F7
:100230001F5F123048F389EF90E00197F1F700C09B
:100240000000802F0E94520028960FB6F894DEBF5F
:100250000FBECDBFDF91CF911F910F9108951F93D6
:10026000CF93DF93CDB7DEB768970FB6F894DEBFB4
:100270000FBECDBFFE01319688E0DF011D928A9549
:10028000E9F783E08A8381E08B8392E09E838F830A
:1002900010E00FC0812F90E0880F991F880F991FE1
:1002A00021E030E02C0F3D1F820F931F0E94CD01F3
:1002B0001F5F123078F3FE01399680E1DF011D9255
:1002C0008A95E9F781E089878B878D878E878F876D
:1002D000898B92E09A8B8B8B8D8B94E09E8B8F8B8E
:1002E00010E00FC0812F90E0880F991F880F991F91
:1002F00029E030E02C0F3D1F820F931F0E94CD019B
:100300001F5F143078F382E00E94EC0089EF90E0E8
:100310000197F1F700C0000088E20E94EC00A9EF0D
:10032000B0E01197F1F700C000008FE00E94EC00F0
:1003300089EF90E00197F1F700C0000081E00E9492
:10034000EC00A3EFB1E01197F1F700C0000086E0E8
:100350000E94EC0068960FB6F894DEBF0FBECDBFCA
:10036000DF91CF911F91089524B130E00024220F36
:10037000331F001C220F331F001C232F302D85B18B
:1003800090E0880F991F880F991FE0918000F091ED
:100390008100822B932B09950895DC01EC91E430C8
:1003A000A0F511962C911197283088F512968C9112
:1003B000811115C0F0E0EE0FFF1FE858FF4F0190CC
:1003C000F081E02D81E090E002C0880F991F2A950E
:1003D000E2F7809590818923808380E008958130C1
:1003E000C1F4F0E0EE0FFF1FE858FF4F0190F081DD
:1003F000E02D81E090E002C0880F991F2A95E2F776
:100400009081892B808380E0089581E0089581E0C8
:10041000089581E008950097C1F1DC01EC91E4308A
:10042000B0F511962C911197283098F513968C9170
:100430008130A1F4F0E0EE0FFF1FE059FF4F019073
:10044000F081E02D81E090E002C0880F991F2A958D
:10045000E2F79081892B808380E0089581111BC091
:10046000F0E0EE0FFF1FE059FF4F0190F081E02D0B
:1004700081E090E002C0880F991F2A95E2F78095ED
:1004800090818923808380E0089581E0089581E050
:10049000089581E0089581E008951F920F920FB6AC
:1004A0000F9211242F933F934F935F936F937F93FA
:1004B0008F939F93AF93BF93EF93FF93E09182004D
:1004C000F0918300309709F00995FF91EF91BF916A
:1004D000AF919F918F917F916F915F914F913F91DC
:1004E0002F910F900FBE0F901F9018951F920F9293
:1004F0000FB60F9211242F933F934F935F936F93F7
:100500007F938F939F93AF93BF93EF93FF93E0916C
:100510008400F0918500309709F00995FF91EF91E3
:10052000BF91AF919F918F917F916F915F914F910B
:100530003F912F910F900FBE0F901F9018951F9213
:100540000F920FB60F9211242F933F934F935F9307
:100550006F937F938F939F93AF93BF93EF93FF938B
:10056000E0918600F0918700309709F00995FF919E
:10057000EF91BF91AF919F918F917F916F915F911B
:100580004F913F912F910F900FBE0F901F90189594
:04059000F894FFCF0D
:100594000003010000020101000301010002010146
:1005A4003B003800350032003A0037003400310097
:00000001FF
