:100000000C943A000C947A040C94A3040C94CC0441
:100010000C9457000C9457000C9457000C94570004
:100020000C9457000C9457000C9457000C945700F4
:100030000C9457000C9457000C9457000C945700E4
:100040000C94B8030C9457000C9457000C94570070
:100050000C94570075009100770079007B007D00BB
:100060007F008100830085008700890092008B005B
:100070008D008F0011241FBECFE5D8E0DEBFCDBFBD
:1000800010E0A0E6B0E0E4E6FAE002C005900D92D0
:10009000A83AB107D9F720E0A8EAB0E001C01D9264
:1000A000A03BB207E1F70E9459000C9430050C9474
:1000B000000083ED90E30197F1F700C000000E947B
:1000C0003D030E949300682F70E080E090E00E9462
:1000D0008502F7CF482F50E0FA013197E031F10562
:1000E00008F5E65DFF4F0C94F50487E0089589E07C
:1000F000089585E2089584E0089585E0089586E0F6
:1001000008958AE2089581E0089582E0089583E0E9
:1001100008958DE2089580E008958DE308958BE2BF
:10012000089588E00895AF92BF92CF92DF92EF9248
:10013000FF920F931F93CF93DF93CDB7DEB7A197B5
:100140000FB6F894DEBF0FBECDBF80E1E0E6F0E071
:10015000DE01119601900D928A95E1F7FE017196EC
:1001600080E1DF011D928A95E9F782E0898B95E0B5
:100170009A8B91E09B8B8D8B24E02E8B9F8B898FAC
:1001800023E02A8F9B8F8D8F8E8F9F8FD12C1BC04A
:10019000ED2CF12CEE0CFF1CEE0CFF1C01E010E02E
:1001A0000C0F1D1F0E0D1F1DC8010E94D10381E100
:1001B00090E08C0F9D1F8E0D9F1D0E94D103C801E2
:1001C0000E940F04D394B3E0BD1510F7E12C54C086
:1001D000CE2CD12C5601AA0CBB1CAA0CBB1CE1E0F6
:1001E000F0E0EC0FFD1FEA0DFB1D138A81E190E0AA
:1001F0008C0F9D1FA80EB91EC5010E940F04F12C83
:1002000028C00F2D10E0000F111F000F111FA1E0DB
:10021000B0E0AC0FBD1F0A0F1B1FBE016F5D7F4F0B
:10022000C8010E94510499A1911112C006C0BE01DB
:100230006F5D7F4FC8010E94510489A18130B9F7D9
:10024000FF0CFF0C8F2D8E0D8F5F0E946A0019C06E
:10025000F394B3E0BF15A8F6CC0CDD1CCC0CDD1C70
:10026000E1E0F0E0EC0FFD1FEC0DFD1D81E0838B64
:10027000C5010E940F04E39483E08E1508F0A8CF17
:10028000A5CFA1960FB6F894DEBF0FBECDBFDF910C
:10029000CF911F910F91FF90EF90DF90CF90BF9083
:1002A000AF9008950F931F93CF93DF93CDB7DEB731
:1002B00064970FB6F894DEBF0FBECDBF082F81E064
:1002C00089831A828B8304FB992790F99C838D8301
:1002D0008E838F8305FB992790F99887898792E011
:1002E0009A878B8706FB992790F99C878D8794E0E6
:1002F0009E878F87802F881F8827881F888B10E014
:100300000FC0812F90E0880F991F880F991F21E05F
:1003100030E02C0F3D1F820F931F0E940F041F5FC0
:10032000143078F3198A82E08A8B1C8A89EF90E076
:100330000197F1F700C00000CE0141960E940F0422
:10034000E9EFF0E03197F1F700C0000081E08C8B1D
:10035000CE0141960E940F0489EF90E00197F1F7DA
:1003600000C0000010E01AC0812F90E0202F30E084
:10037000012E02C0359527950A94E2F7880F991F40
:10038000880F991FE1E0F0E0EC0FFD1F8E0F9F1F1B
:100390002170FC0123830E940F041F5F143020F39F
:1003A00089EF90E00197F1F700C000001C8ACE01B0
:1003B00041960E940F04E9EFF0E03197F1F700C099
:1003C000000064960FB6F894DEBF0FBECDBFDF917C
:1003D000CF911F910F9108950F931F93CF93DF93A8
:1003E000CDB7DEB728970FB6F894DEBF0FBECDBFEE
:1003F000082F88E0E0E7F0E0DE01119601900D9211
:100400008A95E1F710E015C0812F90E0880F991FC1
:10041000880F991F21E030E02C0F3D1F820F931FA2
:100420000E940F0489EF90E00197F1F700C00000EF
:100430001F5F123048F389EF90E00197F1F700C099
:100440000000802F0E94520128960FB6F894DEBF5C
:100450000FBECDBFDF91CF911F910F9108950F93E4
:100460001F93CF93DF93CDB7DEB728970FB6F894DD
:10047000DEBF0FBECDBF082F88E0E8E7F0E0DE0169
:10048000119601900D928A95E1F710E015C0812F29
:1004900090E0880F991F880F991F21E030E02C0F02
:1004A0003D1F820F931F0E940F0489EF90E0019778
:1004B000F1F700C000001F5F123048F389EF90E0B1
:1004C0000197F1F700C00000802F0E94520128968A
:1004D0000FB6F894DEBF0FBECDBFDF91CF911F9155
:1004E0000F9108950F931F93CF938C01C0E003C029
:1004F0000E942F02CF5FF801EC0FF11D8081811166
:10050000F7CFCF911F910F910895CF93DF93CDB780
:10051000DEB760970FB6F894DEBF0FBECDBFDC012B
:10052000CB014AE0BE016F5F7F4F0E94FB04CE010A
:1005300001960E94720260960FB6F894DEBF0FBE5D
:10054000CDBFDF91CF9108951F93CF93DF93CDB7A8
:10055000DEB764970FB6F894DEBF0FBECDBF80E163
:10056000E0E8F0E0DE01119601900D928A95E1F746
:1005700010E00FC0812F90E0880F991F880F991FFE
:1005800021E030E02C0F3D1F820F931F0E940F04CB
:100590001F5F143078F3198A82E08A8B1C8A89EFF6
:1005A00090E00197F1F700C00000CE0141960E9453
:1005B0000F0489EF90E00197F1F700C0000081E09F
:1005C0008C8BCE0141960E940F0489EF90E0019739
:1005D000F1F700C0000010E00FC0812F90E0880FFD
:1005E000991F880F991F21E030E02C0F3D1F820FCB
:1005F000931F0E940F041F5F143078F389EF90E07F
:100600000197F1F700C000001C8ACE0141960E94BC
:100610000F0489EF90E00197F1F700C0000010E0AF
:100620000FC0812F90E0880F991F880F991F21E03C
:1006300030E02C0F3D1F820F931F0E940F041F5F9D
:10064000143078F389EF90E00197F1F700C00000D3
:100650001C8ACE0141960E940F0489EF90E0019719
:10066000F1F700C0000064960FB6F894DEBF0FBE2D
:10067000CDBFDF91CF911F9108951F93CF93DF934B
:10068000CDB7DEB768970FB6F894DEBF0FBECDBF0B
:10069000FE01319688E0DF011D928A95E9F783E03B
:1006A0008A8381E08B8392E09E838F8310E00FC06A
:1006B000812F90E0880F991F880F991F21E030E06B
:1006C0002C0F3D1F820F931F0E94D1031F5F12301A
:1006D00078F3FE01399680E1DF011D928A95E9F7F2
:1006E00081E089878B878D878E878F87898B92E0C2
:1006F0009A8B8B8B8D8B94E09E8B8F8B10E00FC031
:10070000812F90E0880F991F880F991F29E030E012
:100710002C0F3D1F820F931F0E94D1031F5F1430C7
:1007200078F30E94A40289EF90E00197F1F700C0EE
:1007300000008FE00E94EC01A9EFB0E01197F1F703
:1007400000C0000081E00E94EC0183EF91E001977E
:10075000F1F700C0000086E00E94EC0168960FB639
:10076000F894DEBF0FBECDBFDF91CF911F910895EA
:1007700024B130E00024220F331F001C220F331F4E
:10078000001C232F302D85B190E0880F991F880F12
:10079000991FE091A800F091A900822B932B099555
:1007A0000895DC01EC91E430A0F511962C9111979D
:1007B000283088F512968C91811115C0F0E0EE0F6B
:1007C000FF1FE056FF4F0190F081E02D81E090E0A7
:1007D00002C0880F991F2A95E2F78095908189239E
:1007E000808380E008958130C1F4F0E0EE0FFF1FB8
:1007F000E056FF4F0190F081E02D81E090E002C0D3
:10080000880F991F2A95E2F79081892B808380E0D9
:10081000089581E0089581E0089581E008950097AA
:10082000C1F1DC01EC91E430B0F511962C911197F7
:10083000283098F513968C918130A1F4F0E0EE0FFA
:10084000FF1FE856FF4F0190F081E02D81E090E01E
:1008500002C0880F991F2A95E2F79081892B808327
:1008600080E0089581111BC0F0E0EE0FFF1FE856F5
:10087000FF4F0190F081E02D81E090E002C0880FF1
:10088000991F2A95E2F7809590818923808380E0E3
:10089000089581E0089581E0089581E0089581E060
:1008A00008950097F9F061157105F1F0DC01EC9104
:1008B000E430E0F411962C912830D0F4F0E0EE0F03
:1008C000FF1FE057FF4F0190F081E02D808190E005
:1008D00002C0959587952A95E2F78170FB01808388
:1008E00080E0089581E0089581E0089581E0089511
:1008F00081E008951F920F920FB60F9211242F934B
:100900003F934F935F936F937F938F939F93AF9397
:10091000BF93EF93FF93E091AA00F091AB00309763
:1009200009F00995FF91EF91BF91AF919F918F9140
:100930007F916F915F914F913F912F910F900FBEDB
:100940000F901F9018951F920F920FB60F921124BF
:100950002F933F934F935F936F937F938F939F93C7
:10096000AF93BF93EF93FF93E091AC00F091AD0094
:10097000309709F00995FF91EF91BF91AF919F9149
:100980008F917F916F915F914F913F912F910F9038
:100990000FBE0F901F9018951F920F920FB60F92D7
:1009A00011242F933F934F935F936F937F938F9374
:1009B0009F93AF93BF93EF93FF93E091AE00F091BD
:1009C000AF00309709F00995FF91EF91BF91AF917A
:1009D0009F918F917F916F915F914F913F912F9157
:1009E0000F900FBE0F901F901895EE0FFF1F0590F0
:1009F000F491E02D0994BB274A3031F4992322F475
:100A0000BDE2909581959F4F0C940705BB27FB0194
:100A10005527AA27880F991FAA1FA41710F0A41BF7
:100A200083955051B9F7A05DAA3308F0A95DA19351
:100A3000009779F7B111B1931192CB010C94200575
:100A4000DC01FC01672F71917723E1F7329704C035
:100A50007C916D9370836291AE17BF07C8F30895C0
:040A6000F894FFCF38
:100A6400030700010306000103050001030300015D
:100A74000003010000020101000301010002010161
:100A84000100010001010101010201000104010052
:100A940039003600330030003B00380035003200A6
:080AA4003A0037003400310074
:00000001FF
