S01700004E54495F4156525F447269766572732E737265639C
S11300000C942A000C9463000C948C000C94B5009E
S11300100C9447000C9447000C941E020C94F501B8
S11300200C9447000C948A010C9461010C9408010F
S11300300C94DE000C9447020C9447000C94470087
S11300400C944A000C9447000C9447000C9447000D
S11300500C94470011241FBECFE5D8E0DEBFCDBF0E
S113006010E0A0E6B0E0E6EEF4E002C005900D92E8
S1130070A036B107D9F720E0A0E6B0E001C01D9298
S1130080A439B207E1F70E9449000C9471020C9460
S11300900000FFCF24B130E00024220F331F001CE6
S11300A0220F331F001C232F302D85B190E0880FC1
S11300B0991F880F991FE0916000F0916100822BD5
S11300C0932B099508951F920F920FB60F92112446
S11300D02F933F934F935F936F937F938F939F934C
S11300E0AF93BF93EF93FF93E0916200F0916300AD
S11300F0309709F00995FF91EF91BF91AF919F91CE
S11301008F917F916F915F914F913F912F910F90BC
S11301100FBE0F901F9018951F920F920FB60F925B
S113012011242F933F934F935F936F937F938F93F8
S11301309F93AF93BF93EF93FF93E0916400F0918B
S11301406500309709F00995FF91EF91BF91AF9148
S11301509F918F917F916F915F914F913F912F91DB
S11301600F900FBE0F901F9018951F920F920FB60D
S11301700F9211242F933F934F935F936F937F9329
S11301808F939F93AF93BF93EF93FF93E091660098
S1130190F0916700309709F00995FF91EF91BF91B5
S11301A0AF919F918F917F916F915F914F913F910B
S11301B02F910F900FBE0F901F9018951F920F92C2
S11301C00FB60F9211242F933F934F935F936F9326
S11301D07F938F939F93AF93BF93EF93FF93E0919C
S11301E06800F0916900309711F08FB10995FF9183
S11301F0EF91BF91AF919F918F917F916F915F919B
S11302004F913F912F910F900FBE0F901F90189513
S11302101F920F920FB60F9211242F933F934F9377
S11302205F936F937F938F939F93AF93BF93EF935A
S1130230FF9380916E0090916F00892B89F18091DA
S11302406A0090916B00A0916C00B0916D000196D2
S1130250A11DB11D80936A0090936B00A0936C0064
S1130260B0936D00409176005091770060917800D2
S11302707091790084179507A607B70789F48091D0
S11302807200819582BF10926A0010926B001092E6
S11302906C0010926D00E0916E00F0916F00099572
S11302A0FF91EF91BF91AF919F918F917F916F914A
S11302B05F914F913F912F910F900FBE0F901F9020
S11302C018951F920F920FB60F9211242F933F93FC
S11302D04F935F936F937F938F939F93AF93BF934A
S11302E0EF93FF93E0917000F0917100309709F063
S11302F00995FF91EF91BF91AF919F918F917F915C
S11303006F915F914F913F912F910F900FBE0F907E
S11303101F9018951F920F920FB60F9211242F93CE
S11303203F934F935F936F937F938F939F93AF9379
S1130330BF93CF93DF93EF93FF93CEE7D0E0E881B1
S1130340F98109958091860090918700A091880099
S1130350B09189000196A11DB11D809386009093F0
S11303608700A0938800B0938900E881F9813097D1
S113037049F180917A0090917B00A0917C00B0912A
S11303807D000196A11DB11D80937A0090937B009E
S1130390A0937C00B0937D0040918A0050918B0023
S11303A060918C0070918D0084179507A607B7079C
S11303B049F410927A0010927B0010927C00109203
S11303C07D000995FF91EF91DF91CF91BF91AF919E
S11303D09F918F917F916F915F914F913F912F9159
S11303E00F900FBE0F901F9018951F920F920FB68B
S11303F00F9211242F933F934F935F936F937F93A7
S11304008F939F93AF93BF93EF93FF93E0918000FB
S1130410F0918100309709F00995FF91EF91BF9118
S1130420AF919F918F917F916F915F914F913F9188
S11304302F910F900FBE0F901F9018951F920F923F
S11304400FB60F9211242F933F934F935F936F93A3
S11304507F938F939F93AF93BF93EF93FF93E09119
S11304608400F0918500309709F00995FF91EF9190
S1130470BF91AF919F918F917F916F915F914F91B8
S11304803F912F910F900FBE0F901F9018951F92C0
S11304900F920FB60F9211242F933F934F935F93B4
S11304A06F937F938F939F93AF93BF93EF93FF9338
S11304B08CB1E0918E00F0918F00309709F009958E
S11304C0FF91EF91BF91AF919F918F917F916F9128
S11304D05F914F913F912F910F900FBE0F901F90FE
S10904E01895F894FFCF0B
S9030000FC
