:100000000C942A000C94BD000C94E6000C940F0193
:100010000C9447000C9447000C947A020C94510203
:100020000C9447000C94E6010C94BD010C946401FF
:100030000C943A010C94B9020C9447000C944700BC
:100040000C94A4000C9447000C9447000C944700B7
:100050000C94470011241FBECFE5D8E0DEBFCDBF12
:1000600010E0A0E6B0E0EAECF5E002C005900D92E9
:10007000A036B107D9F720E0A0E6B0E001C01D929C
:10008000AE3AB207E1F70E9449000C94E3020C94E7
:1000900000000E9438010E94A30245E050E062E0A7
:1000A00070E081E00E946000FFCF90916000E92F36
:1000B000F0E0EB56FF4F80839F5F909360000895C0
:1000C0001F93CF93DF93CDB7DEB761970FB6F89448
:1000D000DEBF0FBECDBF9FEE998321E02A839FEF45
:1000E0009B839C839D839E832F83188698E09987AA
:1000F00094E09A878B877C876D875E874F87288BF4
:100100008DE0898B10E00AC0E1E0F0E0EC0FFD1F0C
:10011000E10FF11D80810E94AD021F5F1131A0F33C
:1001200085E590E00E94B102809160008031E1F7A6
:1001300080919E0061960FB6F894DEBF0FBECDBFD2
:10014000DF91CF911F91089524B130E00024220F58
:10015000331F001C220F331F001C232F302D85B1AD
:1001600090E0880F991F880F991FE0916100F0912E
:100170006200822B932B099508951F920F920FB660
:100180000F9211242F933F934F935F936F937F931D
:100190008F939F93AF93BF93EF93FF93E09163008F
:1001A000F0916400309709F00995FF91EF91BF91AC
:1001B000AF919F918F917F916F915F914F913F91FF
:1001C0002F910F900FBE0F901F9018951F920F92B6
:1001D0000FB60F9211242F933F934F935F936F931A
:1001E0007F938F939F93AF93BF93EF93FF93E09190
:1001F0006500F0916600309709F00995FF91EF9145
:10020000BF91AF919F918F917F916F915F914F912E
:100210003F912F910F900FBE0F901F9018951F9236
:100220000F920FB60F9211242F933F934F935F932A
:100230006F937F938F939F93AF93BF93EF93FF93AE
:10024000E0916700F0916800309709F00995FF91FF
:10025000EF91BF91AF919F918F917F916F915F913E
:100260004F913F912F910F900FBE0F901F901895B7
:10027000789408951F920F920FB60F9211242F9326
:100280003F934F935F936F937F938F939F93AF931E
:10029000BF93EF93FF93E0916900F0916A0030976C
:1002A00011F08FB10995FF91EF91BF91AF919F919F
:1002B0008F917F916F915F914F913F912F910F900F
:1002C0000FBE0F901F9018951F920F920FB60F92AE
:1002D00011242F933F934F935F936F937F938F934B
:1002E0009F93AF93BF93EF93FF9380916F00909193
:1002F0007000892B89F180916B0090916C00A09126
:100300006D00B0916E000196A11DB11D80936B0030
:1003100090936C00A0936D00B0936E0040917700B5
:10032000509178006091790070917A008417950758
:10033000A607B70789F480917300819582BF109258
:100340006B0010926C0010926D0010926E00E091A4
:100350006F00F09170000995FF91EF91BF91AF91FF
:100360009F918F917F916F915F914F913F912F91CD
:100370000F900FBE0F901F9018951F920F920FB6FF
:100380000F9211242F933F934F935F936F937F931B
:100390008F939F93AF93BF93EF93FF93E09171007F
:1003A000F0917200309709F00995FF91EF91BF919C
:1003B000AF919F918F917F916F915F914F913F91FD
:1003C0002F910F900FBE0F901F9018951F920F92B4
:1003D0000FB60F9211242F933F934F935F936F9318
:1003E0007F938F939F93AF93BF93CF93DF93EF93BD
:1003F000FF93CFE7D0E0E881F981099580918700EC
:1004000090918800A0918900B0918A000196A11D69
:10041000B11D8093870090938800A0938900B093CA
:100420008A00E881F981309749F180917B009091B1
:100430007C00A0917D00B0917E000196A11DB11DB0
:1004400080937B0090937C00A0937D00B0937E000E
:1004500040918B0050918C0060918D0070918E00C6
:1004600084179507A607B70749F410927B001092EE
:100470007C0010927D0010927E000995FF91EF9113
:10048000DF91CF91BF91AF919F918F917F916F91AC
:100490005F914F913F912F910F900FBE0F901F9042
:1004A00018951F920F920FB60F9211242F933F931E
:1004B0004F935F936F937F938F939F93AF93BF936C
:1004C000EF93FF93E0918100F0918200309709F063
:1004D0000995FF91EF91BF91AF919F918F917F917E
:1004E0006F915F914F913F912F910F900FBE0F90A1
:1004F0001F9018951F920F920FB60F9211242F93F1
:100500003F934F935F936F937F938F939F93AF939B
:10051000BF93EF93FF93E0918500F09186003097B1
:1005200009F00995FF91EF91BF91AF919F918F9144
:100530007F916F915F914F913F912F910F900FBEDF
:100540000F901F90189582E08BB988E18AB986E8F0
:1005500080BD10BC80E189B908955D9BFECF8CB948
:1005600008952AB120682AB99093900080938F0053
:1005700008951F920F920FB60F9211242F933F935D
:100580004F935F936F937F938F939F93AF93BF939B
:10059000EF93FF938CB1E0918F00F0919000309732
:1005A00009F00995FF91EF91BF91AF919F918F91C4
:1005B0007F916F915F914F913F912F910F900FBE5F
:0A05C0000F901F901895F894FFCFDC
:00000001FF
