S01700004E54495F4156525F447269766572732E737265639C
S11300000C943A000C9488040C94B1040C94DA0413
S11300100C9457000C9457000C9488060C945F06BB
S11300200C9457000C94F4050C94CB050C947205B5
S11300300C9405050C94B1060C9457000C945700CD
S11300400C94C6030C9457000C9457000C9457005E
S11300500C945700F3000F01F500F700F900FB00C2
S1130060FD00FF0001010301050107011001090161
S11300700B010D0111241FBECFE5D8E0DEBFCDBFBB
S113008011E0A0E6B0E0E0E8FEE002C005900D92C9
S1130090A430B107D9F721E0A4E0B1E001C01D927A
S11300A0AC33B207E1F70E94A3000C943E070C9412
S11300B00000CF93109205010E94C20380E890E0F3
S11300C00E947D0360E081E00E94AF03C0E015C0A0
S11300D00E9411018D3099F090910501990F292FFB
S11300E0220F220F920F980F90930501682F70E052
S11300F080E090E00E949003CF5FC33048F30E94F9
S1130100C20383E990E00E947D0360E081E00E94E5
S1130110AF0382EA90E00E947D0364E082E00E94E3
S1130120AF0387EB90E00E947D0364E083E00E94CC
S1130130AF038CEC90E00E947D030E941101809338
S11301400401CF910895CF93DF93CDB7DEB72897FD
S11301500FB6F894DEBF0FBECDBF19821A821B8280
S11301601C8281E0898393E09A838B83CE0101967C
S11301700E94DF030E9403050E94B5020E945900F9
S11301801D821E821F82188683E08D8382E08F8306
S1130190CE0105960E942F0560910501809104010E
S11301A00E945B050E94C20383ED90E00E947D03E0
S11301B060E081E00E94AF0382EE90E00E947D0344
S11301C00E94110102C00E9411018D30E1F7D6CFC7
S11301D0482F50E0FA013197E031F10508F5E65D6A
S11301E0FF4F0C94EF0687E0089589E0089585E2B7
S11301F0089584E0089585E0089586E008958AE2EC
S1130200089581E0089582E0089583E008958DE2E1
S1130210089580E008958DE308958BE2089588E0C1
S113022008959F92AF92BF92CF92DF92EF92FF9286
S11302300F931F93CF93DF93CDB7DEB7A1970FB67C
S1130240F894DEBF0FBECDBF198280E1E0E6F0E096
S1130250DE01129601900D928A95E1F7FE017296E5
S113026080E1DF011D928A95E9F782E08A8B95E0AF
S11302709B8B91E09C8B8E8B24E02F8B988F8A8FA5
S113028023E02B8F9C8F8E8F8F8F98A3D12C1BC034
S1130290ED2CF12CEE0CFF1CEE0CFF1C02E010E028
S11302A00C0F1D1F0E0D1F1DC8010E94DF0382E1EC
S11302B090E08C0F9D1F8E0D9F1D0E94DF03C801CF
S11302C00E941D04D394B3E0BD1510F7912CA12C0A
S11302D058C0EA2CF12C6701CC0CDD1CCC0CDD1CC5
S11302E0E1E0F0E0EC0FFD1FEC0DFD1D148A82E14E
S11302F090E08C0F9D1FC80ED91EC6010E941D04DC
S1130300B12C2CC00B2D10E0000F111F000F111F7A
S1130310A2E0B0E0AC0FBD1F0A0F1B1FBE016F5F50
S11303207F4FC8010E945F049981911115C0B1E00B
S11303309B1212C006C0BE016F5F7F4FC8010E94AE
S11303405F0489818130B9F7BB0CBB0C8B2D8A0DFE
S11303508F5F0E94E8001AC0B394992E83E08B1536
S113036088F6EE0CFF1CEE0CFF1CE1E0F0E0EC0F55
S1130370FD1FEE0DFF1D81E0848BC6010E941D044C
S1130380A39493E09A1508F0A4CFA1CFA1960FB639
S1130390F894DEBF0FBECDBFDF91CF911F910F91B7
S11303A0FF90EF90DF90CF90BF90AF909F90089513
S11303B00F931F93CF93DF93CDB7DEB764970FB638
S11303C0F894DEBF0FBECDBF082F81E089831A8267
S11303D08B8304FB992790F99C838D838E838F8371
S11303E005FB992790F99887898792E09A878B87EC
S11303F006FB992790F99C878D8794E09E878F87C9
S1130400802F881F8827881F888B10E00FC0812FBA
S113041090E0880F991F880F991F21E030E02C0F7E
S11304203D1F820F931F0E941D041F5F143078F339
S1130430198A82E08A8B1C8A8FEC97E00197F1F786
S113044000C00000CE0141960E941D04EFECF7E0CD
S11304503197F1F700C0000081E08C8BCE0141960A
S11304600E941D048FEC97E00197F1F700C0000093
S113047010E01AC0812F90E0202F30E0012E02C03E
S1130480359527950A94E2F7880F991F880F991FCD
S1130490E1E0F0E0EC0FFD1F8E0F9F1F2170FC01C7
S11304A023830E941D041F5F143020F38FEC97E018
S11304B00197F1F700C000001C8ACE0141960E940A
S11304C01D04EFECF7E03197F1F700C000006496EB
S11304D00FB6F894DEBF0FBECDBFDF91CF911F9151
S11304E00F9108950F931F93CF93DF93CDB7DEB78A
S11304F028970FB6F894DEBF0FBECDBF082F88E053
S1130500E0E7F0E0DE01119601900D928A95E1F7A3
S113051010E015C0812F90E0880F991F880F991F54
S113052021E030E02C0F3D1F820F931F0E941D0419
S11305308FEC97E00197F1F700C000001F5F1230C5
S113054048F38FEC97E00197F1F700C00000802F8B
S11305500E94D80128960FB6F894DEBF0FBECDBF17
S1130560DF91CF911F910F9108951F93CF93DF9344
S1130570CDB7DEB768970FB6F894DEBF0FBECDBF18
S1130580FE01319688E0DF011D928A95E9F783E048
S11305908A8381E08B8392E09E838F8310E00FC077
S11305A0812F90E0880F991F880F991F21E030E078
S11305B02C0F3D1F820F931F0E94DF031F5F123019
S11305C078F3FE01399680E1DF011D928A95E9F7FF
S11305D081E089878B878D878E878F87898B92E0CF
S11305E09A8B8B8B8D8B94E09E8B8F8B10E00FC03E
S11305F0812F90E0880F991F880F991F29E030E020
S11306002C0F3D1F820F931F0E94DF031F5F1430C6
S113061078F382E00E9472028FEC97E00197F1F781
S113062000C0000088E20E947202AFECB7E01197AC
S1130630F1F700C000008FE00E9472028FEC97E097
S11306400197F1F700C0000081E00E947202AFE957
S1130650BFE01197F1F700C0000086E00E9472022B
S113066068960FB6F894DEBF0FBECDBFDF91CF9171
S11306701F9108950F931F93CF93DF93CDB7DEB7E8
S113068028970FB6F894DEBF0FBECDBF082F88E0C1
S1130690E8E7F0E0DE01119601900D928A95E1F70A
S11306A010E015C0812F90E0880F991F880F991FC3
S11306B021E030E02C0F3D1F820F931F0E941D0488
S11306C08FEC97E00197F1F700C000001F5F123034
S11306D048F38FEC97E00197F1F700C00000802FFA
S11306E00E94D80128960FB6F894DEBF0FBECDBF86
S11306F0DF91CF911F910F9108950F931F93CF9383
S11307008C01C0E003C00E943A03CF5FF801EC0FF4
S1130710F11D80818111F7CFCF911F910F91089521
S1130720CF93DF93CDB7DEB760970FB6F894DEBFF3
S11307300FBECDBFDC01CB014AE0BE016F5F7F4F2E
S11307400E940907CE0101960E947D0360960FB6B0
S1130750F894DEBF0FBECDBFDF91CF9108958130F5
S113076039F058F0823031F0833031F060E005C068
S1130770605C03C0605F01C0605B862F80680E947C
S11307807202089581E00E947202089524B130E05B
S11307900024220F331F001C220F331F001C232FA1
S11307A0302D85B190E0880F991F880F991FE09133
S11307B00601F0910701822B932B09950895DC0122
S11307C0EC91E430A0F511962C911197283088F51E
S11307D012968C91811115C0F0E0EE0FFF1FE450CA
S11307E0FF4F0190F081E02D81E090E002C0880F7E
S11307F0991F2A95E2F7809590818923808380E070
S113080008958130C1F4F0E0EE0FFF1FE450FF4F74
S11308100190F081E02D81E090E002C0880F991FE3
S11308202A95E2F79081892B808380E0089581E006
S1130830089581E0089581E008950097C1F1DC01F5
S1130840EC91E430B0F511962C911197283098F57D
S113085013968C918130A1F4F0E0EE0FFF1FEC5061
S1130860FF4F0190F081E02D81E090E002C0880FFD
S1130870991F2A95E2F79081892B808380E008955F
S113088081111BC0F0E0EE0FFF1FEC50FF4F0190F1
S1130890F081E02D81E090E002C0880F991F2A9535
S11308A0E2F7809590818923808380E0089581E038
S11308B0089581E0089581E0089581E00895009706
S11308C0F9F061157105F1F0DC01EC91E430E0F42C
S11308D011962C912830D0F4F0E0EE0FFF1FE45174
S11308E0FF4F0190F081E02D808190E002C095954A
S11308F087952A95E2F78170FB01808380E0089553
S113090081E0089581E0089581E0089581E00895EB
S11309101F920F920FB60F9211242F933F934F9370
S11309205F936F937F938F939F93AF93BF93EF9353
S1130930FF93E0910801F0910901309709F00995BE
S1130940FF91EF91BF91AF919F918F917F916F91A3
S11309505F914F913F912F910F900FBE0F901F9079
S113096018951F920F920FB60F9211242F933F9355
S11309704F935F936F937F938F939F93AF93BF93A3
S1130980EF93FF93E0910A01F0910B01309709F086
S11309900995FF91EF91BF91AF919F918F917F91B5
S11309A06F915F914F913F912F910F900FBE0F90D8
S11309B01F9018951F920F920FB60F9211242F9328
S11309C03F934F935F936F937F938F939F93AF93D3
S11309D0BF93EF93FF93E0910C01F0910D013097D9
S11309E009F00995FF91EF91BF91AF919F918F917C
S11309F07F916F915F914F913F912F910F900FBE17
S1130A000F901F901895789408951F920F920FB627
S1130A100F9211242F933F934F935F936F937F9380
S1130A208F939F93AF93BF93EF93FF93E0910E0146
S1130A30F0910F01309711F08FB10995FF91EF916B
S1130A40BF91AF919F918F917F916F915F914F91E2
S1130A503F912F910F900FBE0F901F901895FC019E
S1130A608181809319019081911103C080E883BF33
S1130A700895923051F483818CBF828120E1829F5A
S1130A80C0011124886883BF0895933051F4828192
S1130A908093180120E1829FC0011124886483BFE0
S1130AA00895913039F4828120E1829FC00111249C
S1130AB0806483BF0895282F3FEF639FC0011124F2
S1130AC064E670E00E94DB0680911801823011F424
S1130AD06CBF03C0833009F46CBF83B7887F282BB5
S1130AE023BF08951F920F920FB60F9211242F93D4
S1130AF03F934F935F936F937F938F939F93AF93A2
S1130B00BF93EF93FF938091140190911501892B6A
S1130B1089F18091100190911101A0911201B0917D
S1130B2013010196A11DB11D809310019093110131
S1130B30A0931201B093130140911E0150911F0123
S1130B40609120017091210184179507A607B707CA
S1130B5089F480911A01819582BF1092100110923C
S1130B6011011092120110921301E0911401F091FD
S1130B7015010995FF91EF91BF91AF919F918F91CD
S1130B807F916F915F914F913F912F910F900FBE85
S1130B900F901F9018951F920F920FB60F92112469
S1130BA02F933F934F935F936F937F938F939F9371
S1130BB0AF93BF93EF93FF93E0911601F091170168
S1130BC0309709F00995FF91EF91BF91AF919F91F3
S1130BD08F917F916F915F914F913F912F910F90E2
S1130BE00FBE0F901F9018951F920F920FB60F9281
S1130BF011242F933F934F935F936F937F938F931E
S1130C009F93AF93BF93CF93DF93EF93FF93C6E28A
S1130C10D1E0E881F981099580912E0190912F010D
S1130C20A0913001B09131010196A11DB11D8093B5
S1130C302E0190932F01A0933001B0933101E881EC
S1130C40F981309749F18091220190912301A0917B
S1130C502401B09125010196A11DB11D80932201AB
S1130C6090932301A0932401B09325014091320174
S1130C7050913301609134017091350184179507C7
S1130C80A607B70749F4109222011092230110928B
S1130C902401109225010995FF91EF91DF91CF91E5
S1130CA0BF91AF919F918F917F916F915F914F9180
S1130CB03F912F910F900FBE0F901F9018951F9288
S1130CC00F920FB60F9211242F933F934F935F937C
S1130CD06F937F938F939F93AF93BF93EF93FF9300
S1130CE0E0912801F0912901309709F00995FF91CD
S1130CF0EF91BF91AF919F918F917F916F915F9190
S1130D004F913F912F910F900FBE0F901F90189508
S1130D101F920F920FB60F9211242F933F934F936C
S1130D205F936F937F938F939F93AF93BF93EF934F
S1130D30FF93E0912C01F0912D01309709F0099572
S1130D40FF91EF91BF91AF919F918F917F916F919F
S1130D505F914F913F912F910F900FBE0F901F9075
S1130D6018951F920F920FB60F9211242F933F9351
S1130D704F935F936F937F938F939F93AF93BF939F
S1130D80EF93FF938CB1E0913601F09137013097E6
S1130D9009F00995FF91EF91BF91AF919F918F91C8
S1130DA07F916F915F914F913F912F910F900FBE63
S1130DB00F901F90189597FB072E16F4009407D0F8
S1130DC077FD09D00E94F50607FC05D03EF4909506
S1130DD081959F4F0895709561957F4F0895EE0F0B
S1130DE0FF1F0590F491E02D0994AA1BBB1B51E150
S1130DF007C0AA1FBB1FA617B70710F0A61BB70B87
S1130E00881F991F5A95A9F780959095BC01CD012B
S1130E100895BB274A3031F4992322F4BDE290951A
S1130E2081959F4F0C941507BB27FB015527AA27D3
S1130E30880F991FAA1FA41710F0A41B8395505163
S1130E40B9F7A05DAA3308F0A95DA193009779F7DB
S1130E50B111B1931192CB010C942E07DC01FC016A
S1130E60672F71917723E1F7329704C07C916D93DA
S1130E7070836291AE17BF07C8F30895F894FFCF4B
S1130E800307000103060001030500010303000139
S1130E90000301000002010100030101000201013D
S1130EA0456E7465722044757479204379636C656A
S1130EB03A200043686F6F73652046726571203A6B
S1130EC02000312D36322E356B687A202020322DC9
S1130ED0372E386B687A00332D393736687A2020FC
S1130EE0202020342D3234346B687A00352D36318D
S1130EF0687A004D6F746F722052756E6E696E67FA
S1130F002000476F204241434B3F21003900360007
S1130F10330030003B003800350032003A0037001F
S1070F203400310064
S9030000FC
