S01700004E54495F4156525F447269766572732E737265639C
S11300000C942A000C940B010C9434010C945D01A3
S11300100C9447000C9447000C9447000C94470040
S11300200C9447000C948A020C94F1010C949801EE
S11300300C9447000C9447000C9447000C94470020
S11300400C9490000C9447000C9447000C944700C7
S11300500C94470011241FBECFE5D8E0DEBFCDBF0E
S113006010E0A0E6B0E0E2E8F6E002C005900D92F0
S1130070AC37B107D9F720E0ACE7B0E001C01D927E
S1130080A53AB207E1F70E9464000C943F030C9474
S11300900000CF93DF9300D000D0CDB7DEB7198234
S11300A086E08A8381E08B838C83CE0101960E9453
S11300B0A900CE0101960E94E7000F900F900F90C7
S11300C00F90DF91CF910895CF93DF9300D000D0AC
S11300D0CDB7DEB70E94860119821A821B821C8268
S11300E085E08A8360E089E490E00E948302CE0187
S11300F001960E941A0280E00E942D0268E873E1D2
S113010080E090E00E9433020E94240210E005C0C7
S1130110612F85E00E9488011F5F1436C8F3F6CF73
S113012024B130E00024220F331F001C220F331FA0
S1130130001C232F302D85B190E0880F991F880F64
S1130140991FE0917C00F0917D00822B932B0995FF
S11301500895DC01EC91E430A0F511962C911197EF
S1130160283088F512968C91811115C0F0E0EE0FBD
S1130170FF1FEC58FF4F0190F081E02D81E090E0EB
S113018002C0880F991F2A95E2F7809590818923F0
S1130190808380E008958130C1F4F0E0EE0FFF1F0A
S11301A0EC58FF4F0190F081E02D81E090E002C017
S11301B0880F991F2A95E2F79081892B808380E02C
S11301C0089581E0089581E0089581E008950097FD
S11301D0E1F0DC01EC91E430D0F411962C9128305C
S11301E0C0F4F0E0EE0FFF1FE459FF4F0190F081DF
S11301F0E02D81E090E002C0880F991F2A95E2F774
S113020090818927808380E0089581E0089581E0CA
S1130210089581E008951F920F920FB60F92112452
S11302202F933F934F935F936F937F938F939F93FA
S1130230AF93BF93EF93FF93E0917E00F0917F0023
S1130240309709F00995FF91EF91BF91AF919F917C
S11302508F917F916F915F914F913F912F910F906B
S11302600FBE0F901F9018951F920F920FB60F920A
S113027011242F933F934F935F936F937F938F93A7
S11302809F93AF93BF93EF93FF93E0918000F0911E
S11302908100309709F00995FF91EF91BF91AF91DB
S11302A09F918F917F916F915F914F913F912F918A
S11302B00F900FBE0F901F9018951F920F920FB6BC
S11302C00F9211242F933F934F935F936F937F93D8
S11302D08F939F93AF93BF93EF93FF93E09182002B
S11302E0F0918300309709F00995FF91EF91BF9148
S11302F0AF919F918F917F916F915F914F913F91BA
S11303002F910F900FBE0F901F9018957894089519
S1130310282F66953FEF639FC001112464E670E0C7
S11303200E94DB026CBF83B7887F282B23BF08950C
S11303301F920F920FB60F9211242F933F934F9356
S11303405F936F937F938F939F93AF93BF93EF9339
S1130350FF938091880090918900892B89F1809185
S1130360840090918500A0918600B0918700019649
S1130370A11DB11D8093840090938500A0938600F5
S1130380B093870040919000509191006091920049
S11303907091930084179507A607B70789F4809195
S11303A08C00819582BF1092840010928500109277
S11303B0860010928700E0918800F09189000995E9
S11303C0FF91EF91BF91AF919F918F917F916F9129
S11303D05F914F913F912F910F900FBE0F901F90FF
S11303E018951F920F920FB60F9211242F933F93DB
S11303F04F935F936F937F938F939F93AF93BF9329
S1130400EF93FF93E0918A00F0918B00309709F00D
S11304100995FF91EF91BF91AF919F918F917F913A
S11304206F915F914F913F912F910F900FBE0F905D
S11304301F901895FC0121812093A00080818111D7
S113044002C08CE08FBD08958EB5887F8EBD9EB5A9
S11304508091A000892B8EBD0895811103C089B7B6
S1130460846089BF0895CF92DF92EF92FF92CF9379
S1130470DF93CDB7DEB72C970FB6F894DEBF0FBE6F
S1130480CDBF9B01AC018CE0E0E6F0E0DE0111960B
S113049001900D928A95E1F7E091A000F0E0EE0F53
S11304A0FF1F81E090E08C0F9D1FE80FF91FC080B3
S11304B0D180D694C794D694C794D694C794D6942E
S11304C0C794E12CF12CA8EEB3E00E941103A7011C
S11304D096010E94EF02CA01AA27BB278093A100BC
S11304E09093A200A093A300B093A4002C960FB6FF
S11304F0F894DEBF0FBECDBFDF91CF91FF90EF9098
S1130500DF90CF900895611104C090939900809377
S1130510980008951F920F920FB60F9211242F93F3
S11305203F934F935F936F937F938F939F93AF9377
S1130530BF93EF93FF93E0919800F0919900309767
S113054049F18091940090919500A0919600B0910A
S113055097000196A11DB11D80939400909395007E
S1130560A0939600B09397004091A1005091A200EF
S11305706091A3007091A40084179507A607B7079C
S113058049F41092940010929500109296001092E3
S113059097000995FF91EF91BF91AF919F918F9132
S11305A07F916F915F914F913F912F910F900FBE6B
S11305B00F901F90189597FB072E16F4009407D000
S11305C077FD09D00E941C0307FC05D03EF49095EA
S11305D081959F4F0895709561957F4F0895A1E28D
S11305E01A2EAA1BBB1BFD010DC0AA1FBB1FEE1FA9
S11305F0FF1FA217B307E407F50720F0A21BB30BF4
S1130600E40BF50B661F771F881F991F1A9469F76F
S113061060957095809590959B01AC01BD01CF01CB
S113062008950E943003A59F900DB49F900DA49F40
S1130630800D911D11240895AA1BBB1B51E107C015
S1130640AA1FBB1FA617B70710F0A61BB70B881F5E
S1130650991F5A95A9F780959095BC01CD010895ED
S1130660A29FB001B39FC001A39F700D811D1124EF
S1130670911DB29F700D811D1124911D0895F89450
S1050680FFCFA6
S11306820000010008004000000100043B003800A3
S10F0692350032003A003700340031001B
S9030000FC
