:100000000C942A000C94E1020C940A030C94330320
:100010000C9447000C9447000C9447000C94470044
:100020000C9447000C9447000C9447000C945C031C
:100030000C9447000C9447000C9447000C94470024
:100040000C9448020C9447000C9447000C94470011
:100050000C94470011241FBECFE5D8E0DEBFCDBF12
:1000600010E0A0E6B0E0EEE6F7E002C005900D92E9
:10007000A838B107D9F720E0A8E8B0E001C01D9288
:10008000A03AB207E1F70E9449000C94B5030C9422
:1000900000000E942C0181E00E940702FFCF0F9315
:1000A0001F93CF93DF93CDB7DEB764970FB6F89465
:1000B000DEBF0FBECDBF082F81E089831A828B83FC
:1000C00004FB992790F99C838D838E838F8305FB96
:1000D000992790F99887898792E09A878B8706FB02
:1000E000992790F99C878D8794E09E878F87802F32
:1000F000881F8827881F888B10E00FC0812F90E011
:10010000880F991F880F991F21E030E02C0F3D1FA9
:10011000820F931F0E949F021F5F143078F3198A89
:1001200082E08A8B1C8A89EF90E00197F1F700C08A
:100130000000CE0141960E949F02E9EFF0E0319766
:10014000F1F700C0000081E08C8BCE0141960E9447
:100150009F0289EF90E00197F1F700C0000010E0E6
:100160001AC0812F90E0202F30E0012E02C035957B
:1001700027950A94E2F7880F991F880F991FE1E0ED
:10018000F0E0EC0FFD1F8E0F9F1F2170FC012383F9
:100190000E949F021F5F143020F389EF90E00197C7
:1001A000F1F700C000001C8ACE0141960E949F0218
:1001B000E9EFF0E03197F1F700C0000064960FB668
:1001C000F894DEBF0FBECDBFDF91CF911F910F918D
:1001D00008950F931F93CF93DF93CDB7DEB7289782
:1001E0000FB6F894DEBF0FBECDBF082F88E0E0E663
:1001F000F0E0DE01119601900D928A95E1F710E092
:1002000015C0812F90E0880F991F880F991F21E05A
:1002100030E02C0F3D1F820F931F0E949F0289EF39
:1002200090E00197F1F700C000001F5F123048F323
:1002300089EF90E00197F1F700C00000802F0E9445
:100240004F0028960FB6F894DEBF0FBECDBFDF91EA
:10025000CF911F910F9108951F93CF93DF93CDB747
:10026000DEB768970FB6F894DEBF0FBECDBFFE01B4
:10027000319688E0DF011D928A95E9F783E08A8351
:1002800081E08B8392E09E838F8310E00FC0812FEB
:1002900090E0880F991F880F991F21E030E02C0F04
:1002A0003D1F820F931F0E9461021F5F123078F37F
:1002B000FE01399680E1DF011D928A95E9F781E020
:1002C00089878B878D878E878F87898B92E09A8B22
:1002D0008B8B8D8B94E09E8B8F8B10E00FC0812FCA
:1002E00090E0880F991F880F991F29E030E02C0FAC
:1002F0003D1F820F931F0E9461021F5F143078F32D
:1003000082E00E94E90089EF90E00197F1F700C0D8
:10031000000088E20E94E900A9EFB0E01197F1F730
:1003200000C000008FE00E94E90089EF90E0019793
:10033000F1F700C0000081E00E94E900A3EFB1E006
:100340001197F1F700C0000086E00E94E90068966E
:100350000FB6F894DEBF0FBECDBFDF91CF911F91D6
:1003600008950F931F93CF93DF93CDB7DEB72897F0
:100370000FB6F894DEBF0FBECDBF082F88E0E8E6C9
:10038000F0E0DE01119601900D928A95E1F710E000
:1003900015C0812F90E0880F991F880F991F21E0C9
:1003A00030E02C0F3D1F820F931F0E949F0289EFA8
:1003B00090E00197F1F700C000001F5F123048F392
:1003C00089EF90E00197F1F700C00000802F0E94B4
:1003D0004F0028960FB6F894DEBF0FBECDBFDF9159
:1003E000CF911F910F9108950F931F93CF938C017D
:1003F000C0E003C00E94B101CF5FF801EC0FF11D16
:1004000080818111F7CFCF911F910F910895CF93E4
:10041000DF93CDB7DEB729970FB6F894DEBF0FBED6
:10042000CDBF90E021C0292F30E067E070E0621B73
:10043000730B482F50E002C0559547956A95E2F737
:1004400040FF09C0E1E0F0E0EC0FFD1FE20FF31FF9
:1004500041E3408308C0E1E0F0E0EC0FFD1FE20F54
:10046000F31F40E340839F5F9830E8F2198685E7E9
:1004700090E00E94F401CE0101960E94F4012996B9
:100480000FB6F894DEBF0FBECDBFDF91CF910895B8
:1004900024B130E00024220F331F001C220F331F31
:1004A000001C232F302D85B190E0880F991F880FF5
:1004B000991FE0918800F0918900822B932B099578
:1004C0000895DC01EC91E430A0F511962C91119780
:1004D000283088F512968C91811115C0F0E0EE0F4E
:1004E000FF1FE058FF4F0190F081E02D81E090E088
:1004F00002C0880F991F2A95E2F780959081892381
:10050000808380E008958130C1F4F0E0EE0FFF1F9A
:10051000E058FF4F0190F081E02D81E090E002C0B3
:10052000880F991F2A95E2F79081892B808380E0BC
:10053000089581E0089581E0089581E0089500978D
:10054000C1F1DC01EC91E430B0F511962C911197DA
:10055000283098F513968C918130A1F4F0E0EE0FDD
:10056000FF1FE858FF4F0190F081E02D81E090E0FF
:1005700002C0880F991F2A95E2F79081892B80830A
:1005800080E0089581111BC0F0E0EE0FFF1FE858D6
:10059000FF4F0190F081E02D81E090E002C0880FD4
:1005A000991F2A95E2F7809590818923808380E0C6
:1005B000089581E0089581E0089581E0089581E043
:1005C00008951F920F920FB60F9211242F933F930D
:1005D0004F935F936F937F938F939F93AF93BF934B
:1005E000EF93FF93E0918A00F0918B00309709F030
:1005F0000995FF91EF91BF91AF919F918F917F915D
:100600006F915F914F913F912F910F900FBE0F907F
:100610001F9018951F920F920FB60F9211242F93CF
:100620003F934F935F936F937F938F939F93AF937A
:10063000BF93EF93FF93E0918C00F0918D00309782
:1006400009F00995FF91EF91BF91AF919F918F9123
:100650007F916F915F914F913F912F910F900FBEBE
:100660000F901F9018951F920F920FB60F921124A2
:100670002F933F934F935F936F937F938F939F93AA
:10068000AF93BF93EF93FF93E0918E00F0918F00B3
:10069000309709F00995FF91EF91BF91AF919F912C
:1006A0008F917F916F915F914F913F912F910F901B
:1006B0000FBE0F901F9018951F920F920FB60F92BA
:1006C00011242F933F934F935F936F937F938F9357
:1006D0009F93AF93BF93EF93FF938091940090917A
:1006E0009500892B89F18091900090919100A091C3
:1006F0009200B09193000196A11DB11D80939000CE
:1007000090939100A0939200B093930040919C002D
:1007100050919D0060919E0070919F0084179507F5
:10072000A607B70789F480919800819582BF10923F
:100730009000109291001092920010929300E0911C
:100740009400F09195000995FF91EF91BF91AF91C1
:100750009F918F917F916F915F914F913F912F91D9
:0E0760000F900FBE0F901F901895F894FFCFCA
:10076E00000301000002010100030101000201016A
:10077E002E003078003062003B0038003500320029
:08078E003A003700340031008D
:00000001FF
