S01700004E54495F4156525F447269766572732E737265639C
S11300000C942A000C9434010C945D010C94860128
S11300100C9447000C9447000C949A030C947103BD
S11300200C9447000C9406030C94DD020C94840297
S11300300C94B1010C94C3030C9447000C94470036
S11300400C944E000C9447000C9447000C94470009
S11300500C94470011241FBECFE5D8E0DEBFCDBF0E
S113006010E0A0E6B0E0E6EFFAE002C005900D92E1
S1130070AA3AB107D9F720E0AAEAB0E001C01D927C
S1130080A73EB207E1F70E9449000C9479050C944D
S113009000000E94AF010E944504FFCF24B130E06C
S11300A00024220F331F001C220F331F001C232F98
S11300B0302D85B190E0880F991F880F991FE0912A
S11300C0AA00F091AB00822B932B09950895DC01D3
S11300D0EC91E430A0F511962C911197283088F515
S11300E012968C91811115C0F0E0EE0FFF1FEF55B1
S11300F0FF4F0190F081E02D81E090E002C0880F75
S1130100991F2A95E2F7809590818923808380E066
S113011008958130C1F4F0E0EE0FFF1FEF55FF4F5B
S11301200190F081E02D81E090E002C0880F991FDA
S11301302A95E2F79081892B808380E0089581E0FD
S1130140089581E0089581E008950097C1F1DC01EC
S1130150EC91E430B0F511962C911197283098F574
S113016013968C918130A1F4F0E0EE0FFF1FE75657
S1130170FF4F0190F081E02D81E090E002C0880FF4
S1130180991F2A95E2F79081892B808380E0089556
S113019081111BC0F0E0EE0FFF1FE756FF4F0190E7
S11301A0F081E02D81E090E002C0880F991F2A952C
S11301B0E2F7809590818923808380E0089581E02F
S11301C0089581E0089581E0089581E008950097FD
S11301D0E1F0DC01EC91E430D0F411962C9128305C
S11301E0C0F4F0E0EE0FFF1FE756FF4F0190F081DF
S11301F0E02D81E090E002C0880F991F2A95E2F774
S113020090818927808380E0089581E0089581E0CA
S1130210089581E008950097F9F061157105F1F0F2
S1130220DC01EC91E430E0F411962C912830D0F408
S1130230F0E0EE0FFF1FEF56FF4F0190F081E02D2D
S1130240808190E002C0959587952A95E2F78170A8
S1130250FB01808380E0089581E0089581E00895A2
S113026081E0089581E008951F920F920FB60F92D6
S113027011242F933F934F935F936F937F938F93A7
S11302809F93AF93BF93EF93FF93E091AC00F091F2
S1130290AD00309709F00995FF91EF91BF91AF91AF
S11302A09F918F917F916F915F914F913F912F918A
S11302B00F900FBE0F901F9018951F920F920FB6BC
S11302C00F9211242F933F934F935F936F937F93D8
S11302D08F939F93AF93BF93EF93FF93E091AE00FF
S11302E0F091AF00309709F00995FF91EF91BF911C
S11302F0AF919F918F917F916F915F914F913F91BA
S11303002F910F900FBE0F901F9018951F920F9270
S11303100FB60F9211242F933F934F935F936F93D4
S11303207F938F939F93AF93BF93EF93FF93E0914A
S1130330B000F091B100309709F00995FF91EF9169
S1130340BF91AF919F918F917F916F915F914F91E9
S11303503F912F910F900FBE0F901F901895789496
S113036008951F920F920FB60F9211242F933F936B
S11303704F935F936F937F938F939F93AF93BF93A9
S1130380EF93FF93E091B200F091B300309711F036
S11303908FB10995FF91EF91BF91AF919F918F918B
S11303A07F916F915F914F913F912F910F900FBE6D
S11303B00F901F901895FC0181818093BD0090815E
S11303C0911103C080E883BF0895923051F4838172
S11303D08CBF828120E1829FC0011124886883BF81
S11303E00895933051F482818093BC0020E1829F70
S11303F0C0011124886483BF0895913039F4828147
S113040020E1829FC0011124806483BF089583B7D3
S1130410887F9091BD00892B83BF0895CF92DF928E
S1130420EF92FF92CF93DF93CDB7DEB72C970FB641
S1130430F894DEBF0FBECDBF9B01AC018CE0E5E7B5
S1130440F0E0DE01119601900D928A95E1F7E091BA
S1130450BD00F0E0EE0FFF1F81E090E08C0F9D1FC8
S1130460E80FF91FC080D180D694C794D694C7945E
S1130470D694C794E12CF12CA8EEB3E00E945F055A
S1130480A70196010E943D05BB27A52F942F832F1A
S11304908093C2009093C300A093C400B093C5009E
S11304A0DA01C9019927AA27BB278093BE0090933C
S11304B0BF00A093C000B093C1002C960FB6F8946F
S11304C0DEBF0FBECDBFDF91CF91FF90EF90DF90E5
S11304D0CF900895811104C089B7816089BF0895C0
S11304E0813019F489B7826089BF0895611105C00C
S11304F09093B9008093B8000895613021F49093EB
S1130500BB008093BA0008951F920F920FB60F920A
S113051011242F933F934F935F936F937F938F9304
S11305209F93AF93BF93EF93FF938091B800909103
S1130530B900892B89F18091B4009091B500A09104
S1130540B600B091B7000196A11DB11D8093B4000F
S11305509093B500A093B600B093B7004091C20049
S11305605091C3006091C4007091C5008417950731
S1130570A607B70789F48091BE00819582BF1092C7
S1130580B4001092B5001092B6001092B700E0913A
S1130590B800F091B9000995FF91EF91BF91AF9127
S11305A09F918F917F916F915F914F913F912F9187
S11305B00F900FBE0F901F9018951F920F920FB6B9
S11305C00F9211242F933F934F935F936F937F93D5
S11305D08F939F93AF93BF93EF93FF93E091BA00F0
S11305E0F091BB00309709F00995FF91EF91BF910D
S11305F0AF919F918F917F916F915F914F913F91B7
S11306002F910F900FBE0F901F9018951F920F926D
S11306100FB60F9211242F933F934F935F936F93D1
S11306207F938F939F93AF93BF93CF93DF93EF9376
S1130630FF93CAECD0E0E881F98109958091D2005A
S11306409091D300A091D400B091D5000196A11D42
S1130650B11D8093D2009093D300A093D400B093A3
S1130660D500E881F981309749F18091C6009091D5
S1130670C700A091C800B091C9000196A11DB11D89
S11306808093C6009093C700A093C800B093C9009C
S11306904091D6005091D7006091D8007091D90054
S11306A084179507A607B70749F41092C60010925D
S11306B0C7001092C8001092C9000995FF91EF91EC
S11306C0DF91CF91BF91AF919F918F917F916F9166
S11306D05F914F913F912F910F900FBE0F901F90FC
S11306E018951F920F920FB60F9211242F933F93D8
S11306F04F935F936F937F938F939F93AF93BF9326
S1130700EF93FF93E091CC00F091CD00309709F086
S11307100995FF91EF91BF91AF919F918F917F9137
S11307206F915F914F913F912F910F900FBE0F905A
S11307301F9018951F920F920FB60F9211242F93AA
S11307403F934F935F936F937F938F939F93AF9355
S1130750BF93EF93FF93E091D000F091D1003097D5
S113076009F00995FF91EF91BF91AF919F918F91FE
S11307707F916F915F914F913F912F910F900FBE99
S11307800F901F9018951F920F920FB60F9211247D
S11307902F933F934F935F936F937F938F939F9385
S11307A0AF93BF93EF93FF938CB1E091DA00F09194
S11307B0DB00309709F00995FF91EF91BF91AF915C
S11307C09F918F917F916F915F914F913F912F9165
S11307D00F900FBE0F901F901895CF93DF9300D00A
S11307E000D0CDB7DEB719821A821B821C8281E049
S11307F089838B83CE0101960E94E7000F900F90AE
S11308000F900F90DF91CF910895CF93DF9300D095
S113081000D0CDB7DEB719821A821B821C8281E018
S1130820898393E09A838B83CE0101960E94E7002B
S11308300F900F900F900F90DF91CF910895CF9369
S1130840DF9300D000D01F92CDB7DEB71A821B828F
S11308501C821D8281E08A838B83BE016F5F7F4F80
S1130860CE0102960E940B018981811106C082E0AB
S11308708B83CE0102960E94E7000F900F900F9099
S11308800F900F90DF91CF910895FF920F931F93D4
S1130890CF93DF93CDB7DEB764970FB6F894DEBF7E
S11308A00FBECDBF80E1E1E8F0E0DE0111960190DA
S11308B00D928A95E1F7F12C13C00F2D10E0000F73
S11308C0111F000F111F81E090E08C0F9D1F080F76
S11308D0191FC8010E946700C8010E94A500F39473
S11308E093E09F1550F7198A1A8A1B8A1C8A85E09F
S11308F08A8BCE0141960E94DB0160E086EC94E095
S11309000E94760280E00E946A0264EF71E080E057
S113091090E00E940E020E94070264960FB6F894BB
S1130920DEBF0FBECDBFDF91CF911F910F91FF901E
S11309300895CF93C0E026C08C2F90E0FC01EE0F09
S1130940FF1FEE0FFF1FEE0FFF1FE81BF90BE05A0E
S1130950FF4F44815581228133814217530788F028
S1130960FC01EE0FFF1FEE0FFF1FEE0FFF1FE81B32
S1130970F90BE05AFF4F158214820190F081E02DAB
S11309800995CF5FC330C0F2CF91089560E06FC086
S1130990262F30E0F901EE0FFF1FEE0FFF1FEE0FC1
S11309A0FF1FE21BF30BE05AFF4F848195818C50AB
S11309B09E4F95838483428153818417950708F45D
S11309C055C05091E0005330E0F04EC0F901EE0FF5
S11309D0FF1FEE0FFF1FEE0FFF1FE21BF30BE05A8A
S11309E0FF4F7681E82FF0E0EE0FFF1FEF51FF4F2E
S11309F00190F081E02D96819717E0F04F5F8F5FB3
S1130A0002C080E040E0851708F3752F14C0872FDB
S1130A1090E0FC013197EE0FFF1FEF51FF4FA081D3
S1130A20B181880F991FFC01EF51FF4FB183A0835F
S1130A30715001C0752F471750F3E42FF0E0C9013E
S1130A40880F991F880F991F880F991F821B930B7A
S1130A50805A9F4FEE0FFF1FEF51FF4F918380830A
S1130A605F5F5093E00002C01092E0006F5F63305C
S1130A7008F48ECF0E9499040895A1E21A2EAA1BAD
S1130A80BB1BFD010DC0AA1FBB1FEE1FFF1FA2173A
S1130A90B307E407F50720F0A21BB30BE40BF50B37
S1130AA0661F771F881F991F1A9469F760957095C0
S1130AB0809590959B01AC01BD01CF0108950E94E2
S1130AC06A05A59F900DB49F900DA49F800D911D64
S1130AD011240895A29FB001B39FC001A39F700D7C
S1130AE0811D1124911DB29F700D811D1124911D32
S1090AF00895F894FFCF05
S1130AF6ED03E8030000021F04F4010000010504ED
S1130B06B80B0000030000010008004000000100CB
S1130B1604010001000101000101020100010301B9
S1130B260039003600330030003B0038003500320F
S10D0B36003A0037003400310000DB
S9030000FC
