:100000000C943A000C9425060C944E060C9477063A
:100010000C9457000C9457000C9446080C941D083F
:100020000C9457000C94B2070C9425070C94CC0642
:100030000C94A2060C946F080C9457000C94570073
:100040000C9463050C9457000C9457000C945700C3
:100050000C945700CC01E801CE01D001D201D401AB
:10006000D601D801DA01DC01DE01E001E901E2019B
:10007000E401E60111241FBECFE5D8E0DEBFCDBF0D
:1000800011E0A0E6B0E0E0E5F4E102C005900D92D9
:10009000AC33B107D9F721E0ACE3B1E001C01D9268
:1000A000A637B207E1F70E94A4010C94260A0C942B
:1000B000000088E690E00E947C0584E690E00E94C3
:1000C0007C0580E690E00E947C0508950E949B04D8
:1000D0008CE890E00E94560460E081E00E94880471
:1000E00089E990E00E94560480E690E00E94BA05FB
:1000F0002FEF87EA91E6215080409040E1F700C061
:1001000000000895CF93DF930E943D05EC0117C0D6
:100110000E949B0485EA90E00E945604BE0180E0A4
:1001200090E00E9469040E943D05EC012FEF83EDF1
:1001300090E3215080409040E1F700C00000C031C2
:10014000D10530F7DF91CF910895CF92DF92EF92F2
:10015000FF92CF93DF9360E081E00E948804C0E0CB
:10016000D0E0C12CD12C76011EC0D701C601880F6A
:10017000991FAA1FBB1F6C017D01CC0CDD1CEE1C5E
:10018000FF1CCC0CDD1CEE1CFF1CC80ED91EEA1E89
:10019000FB1E0E94EA01C80ED11CE11CF11C8AE280
:1001A0000E9413042196C430D105FCF2C701B601A8
:1001B000DF91CF91FF90EF90DF90CF9008950E9454
:1001C0009B0480EB90E00E94560408950E949B04DB
:1001D00060E081E00E94880484EC90E00E94560474
:1001E00064E082E00E9488048FEC90E00E94560454
:1001F0000E94EA01813069F480936B00809367006C
:1002000088E690E00E94BA0584E690E00E94BA0574
:10021000EFCF823069F710926B001092670088E68A
:1002200090E00E94BA0584E690E00E94BA05E0CF13
:100230008F929F92AF92BF92EF92FF920F931F9374
:10024000CF93DF937A01623D74408105910521F4DB
:100250000E9466000E94E600FA0180819181019669
:100260009183808303970CF44DC00E949B048BED17
:1002700090E00E94560460E081E00E9488048AEECB
:1002800090E00E94560408E710E035C064E082E088
:100290000E94880487EF90E00E945604C8016CE336
:1002A00070E00E94C309EC014C01990FAA08BB0839
:1002B000072E000C880B990B0E9469048AE30E94A8
:1002C0001304FAE08F169104A104B10418F480E33A
:1002D0000E941304BE01DD0F880B990B0E94690474
:1002E0002FEF83ED90E3215080409040E1F700C074
:1002F0000000015011091016110644F2F701118295
:10030000108217C00E949B0483E091E00E94560473
:1003100060E081E00E94880483E191E00E9456043D
:10032000FFEF29E688E1F15020408040E1F700C06E
:100330000000DF91CF911F910F91FF90EF90BF9040
:10034000AF909F908F900895CF93DF9300D0CDB75B
:10035000DEB70E9459000E94A0060E948E030E94F0
:10036000CA041A8219820E949B040E9482000E9481
:10037000DF000E94A500AE014F5F5F4F0E94180191
:10038000F2CF482F50E0FA013197E031F10508F53E
:10039000E65DFF4F0C94D70987E0089589E0089542
:1003A00085E2089584E0089585E0089586E0089543
:1003B0008AE2089581E0089582E0089583E0089537
:1003C0008DE2089580E008958DE308958BE208950D
:1003D00088E008959F92AF92BF92CF92DF92EF9202
:1003E000FF920F931F93CF93DF93CDB7DEB7A19703
:1003F0000FB6F894DEBF0FBECDBF198280E1ECE6E8
:10040000F0E0DE01129601900D928A95E1F7FE016F
:10041000729680E1DF011D928A95E9F782E08A8B6E
:1004200095E09B8B91E09C8B8E8B24E02F8B988F9B
:100430008A8F23E02B8F9C8F8E8F8F8F98A3D12C48
:100440001BC0ED2CF12CEE0CFF1CEE0CFF1C02E08F
:1004500010E00C0F1D1F0E0D1F1DC8010E947C0512
:1004600082E190E08C0F9D1F8E0D9F1D0E947C05E8
:10047000C8010E94BA05D394B3E0BD1510F7912CC2
:10048000A12C58C0EA2CF12C6701CC0CDD1CCC0C43
:10049000DD1CE1E0F0E0EC0FFD1FEC0DFD1D148A0A
:1004A00082E190E08C0F9D1FC80ED91EC6010E94EC
:1004B000BA05B12C2CC00B2D10E0000F111F000F3E
:1004C000111FA2E0B0E0AC0FBD1F0A0F1B1FBE0141
:1004D0006F5F7F4FC8010E94FC059981911115C083
:1004E000B1E09B1212C006C0BE016F5F7F4FC80112
:1004F0000E94FC0589818130B9F7BB0CBB0C8B2DA8
:100500008A0D8F5F0E94C1011AC0B394992E83E0B7
:100510008B1588F6EE0CFF1CEE0CFF1CE1E0F0E002
:10052000EC0FFD1FEE0DFF1D81E0848BC6010E94C4
:10053000BA05A39493E09A1508F0A4CFA1CFA19691
:100540000FB6F894DEBF0FBECDBFDF91CF911F91E4
:100550000F91FF90EF90DF90CF90BF90AF909F9062
:1005600008950F931F93CF93DF93CDB7DEB76497B2
:100570000FB6F894DEBF0FBECDBF082F81E0898390
:100580001A828B8304FB992790F99C838D838E8339
:100590008F8305FB992790F99887898792E09A873E
:1005A0008B8706FB992790F99C878D8794E09E871F
:1005B0008F87802F881F8827881F888B10E00FC0A7
:1005C000812F90E0880F991F880F991F21E030E05C
:1005D0002C0F3D1F820F931F0E94BA051F5F14301E
:1005E00078F3198A82E08A8B1C8A8FE99FE0019751
:1005F000F1F700C00000CE0141960E94BA05EFE974
:10060000FFE03197F1F700C0000081E08C8BCE0154
:1006100041960E94BA058FE99FE00197F1F700C06B
:10062000000010E01AC0812F90E0202F30E0012E52
:1006300002C0359527950A94E2F7880F991F880F15
:10064000991FE1E0F0E0EC0FFD1F8E0F9F1F21705E
:10065000FC0123830E94BA051F5F143020F38FE949
:100660009FE00197F1F700C000001C8ACE0141967F
:100670000E94BA05EFE9FFE03197F1F700C00000F2
:1006800064960FB6F894DEBF0FBECDBFDF91CF9159
:100690001F910F9108950F931F93CF93DF93CDB7C1
:1006A000DEB728970FB6F894DEBF0FBECDBF082F78
:1006B00088E0ECE7F0E0DE01119601900D928A955A
:1006C000E1F710E015C0812F90E0880F991F880F87
:1006D000991F21E030E02C0F3D1F820F931F0E94D5
:1006E000BA058FE99FE00197F1F700C000001F5F96
:1006F000123048F38FE99FE00197F1F700C0000046
:10070000802F0E94B10228960FB6F894DEBF0FBE6C
:10071000CDBFDF91CF911F910F9108951F93CF937C
:10072000DF93CDB7DEB768970FB6F894DEBF0FBE84
:10073000CDBFFE01319688E0DF011D928A95E9F771
:1007400083E08A8381E08B8392E09E838F8310E035
:100750000FC0812F90E0880F991F880F991F21E00B
:1007600030E02C0F3D1F820F931F0E947C051F5FFE
:10077000123078F3FE01399680E1DF011D928A95EF
:10078000E9F781E089878B878D878E878F87898BB3
:1007900092E09A8B8B8B8D8B94E09E8B8F8B10E0ED
:1007A0000FC0812F90E0880F991F880F991F29E0B3
:1007B00030E02C0F3D1F820F931F0E947C051F5FAE
:1007C000143078F382E00E944B038FE99FE0019799
:1007D000F1F700C0000088E20E944B03AFE9BFE0E0
:1007E0001197F1F700C000008FE00E944B038FE9E2
:1007F0009FE00197F1F700C0000081E00E944B03E9
:10080000AFE3BFE11197F1F700C0000086E00E945E
:100810004B0368960FB6F894DEBF0FBECDBFDF91D5
:10082000CF911F9108950F931F93CF93DF93CDB76F
:10083000DEB728970FB6F894DEBF0FBECDBF082FE6
:1008400088E0E4E8F0E0DE01119601900D928A95CF
:10085000E1F710E015C0812F90E0880F991F880FF5
:10086000991F21E030E02C0F3D1F820F931F0E9443
:10087000BA058FE99FE00197F1F700C000001F5F04
:10088000123048F38FE99FE00197F1F700C00000B4
:10089000802F0E94B10228960FB6F894DEBF0FBEDB
:1008A000CDBFDF91CF911F910F9108950F931F93AB
:1008B000CF938C01C0E003C00E941304CF5FF80106
:1008C000EC0FF11D80818111F7CFCF911F910F9116
:1008D0000895CF93DF93CDB7DEB760970FB6F89446
:1008E000DEBF0FBECDBFDC01CB014AE0BE016F5FB2
:1008F0007F4F0E94F109CE0101960E945604609636
:100900000FB6F894DEBF0FBECDBFDF91CF91089533
:10091000813039F058F0823031F0833031F060E0CE
:1009200005C0605C03C0605F01C0605B862F8068AB
:100930000E944B03089581E00E944B03089580912B
:100940003C0190913D01019690933D0180933C01C3
:10095000089580913E018F5F80933E01813031F494
:100960000E94AF0780E00E94A6070895823089F4B4
:100970000E94A30720913C0130913D01821B930B03
:100980009093400180933F010E94AF0781E00E9455
:10099000A60708950F931F93CF93DF93CDB7DEB7CC
:1009A0002D970FB6F894DEBF0FBECDBF85E08E0148
:1009B0000F5F1F4FF801982F11929A95E9F78A83DC
:1009C00063E089EA94E00E948E0760E08FE994E09A
:1009D0000E948E07C8010E944E0783E00E947C0798
:1009E00080E00E947C0781E00E94A6070E947307B6
:1009F0001E821F821886198613E01E831F8381E0E2
:100A00008887CE0106960E947C051A861B861C8666
:100A10001D861A8786E08B87CE010A960E947C0588
:100A20002D960FB6F894DEBF0FBECDBFDF91CF91EC
:100A30001F910F910895CF93DF9300D000D0CDB7D1
:100A4000DEB783E089838A8381E08B838C83CE0148
:100A500001960E94BA058FE39CE90197F1F700C067
:100A600000001C82CE0101960E94BA050F900F90E3
:100A70000F900F90DF91CF9108950E941B052FEFEB
:100A800081EE94E0215080409040E1F700C00000EA
:100A900080913E018230A1F410923E0160913F01AD
:100AA0007091400180E090E00E94C80820E03CEF97
:100AB00045E85FE30E9456090E949908CB0108951A
:100AC0008FEF9FEF089524B130E00024220F331FF1
:100AD000001C220F331F001C232F302D85B190E006
:100AE000880F991F880F991FE0914101F0914201F1
:100AF000822B932B09950895DC01EC91E430A0F54D
:100B000011962C911197283088F512968C918111AD
:100B100015C0F0E0EE0FFF1FEC5CFE4F0190F0817E
:100B2000E02D81E090E002C0880F991F2A95E2F73E
:100B3000809590818923808380E008958130C1F47D
:100B4000F0E0EE0FFF1FEC5CFE4F0190F081E02D16
:100B500081E090E002C0880F991F2A95E2F790810A
:100B6000892B808380E0089581E0089581E00895D5
:100B700081E008950097C1F1DC01EC91E430B0F51B
:100B800011962C911197283098F513968C918130FD
:100B9000A1F4F0E0EE0FFF1FE45DFE4F0190F08145
:100BA000E02D81E090E002C0880F991F2A95E2F7BE
:100BB0009081892B808380E0089581111BC0F0E033
:100BC000EE0FFF1FE45DFE4F0190F081E02D81E00C
:100BD00090E002C0880F991F2A95E2F780959081D6
:100BE0008923808380E0089581E0089581E008955D
:100BF00081E0089581E008950097F9F0611571058D
:100C0000F1F0DC01EC91E430E0F411962C91283005
:100C1000D0F4F0E0EE0FFF1FEC5DFE4F0190F0818D
:100C2000E02D808190E002C0959587952A95E2F7A6
:100C30008170FB01808380E0089581E0089581E068
:100C4000089581E0089581E008951F920F920FB6F4
:100C50000F9211242F933F934F935F936F937F9342
:100C60008F939F93AF93BF93EF93FF93E0914301D3
:100C7000F0914401309709F00995FF91EF91BF91F0
:100C8000AF919F918F917F916F915F914F913F9124
:100C90002F910F900FBE0F901F9018951F920F92DB
:100CA0000FB60F9211242F933F934F935F936F933F
:100CB0007F938F939F93AF93BF93EF93FF93E091B5
:100CC0004501F0914601309709F00995FF91EF91A8
:100CD000BF91AF919F918F917F916F915F914F9154
:100CE0003F912F910F900FBE0F901F9018951F925C
:100CF0000F920FB60F9211242F933F934F935F9350
:100D00006F937F938F939F93AF93BF93EF93FF93D3
:100D1000E0914701F0914801309709F00995FF9162
:100D2000EF91BF91AF919F918F917F916F915F9163
:100D30004F913F912F910F900FBE0F901F901895DC
:100D4000789408951F920F920FB60F9211242F934B
:100D50003F934F935F936F937F938F939F93AF9343
:100D6000BF93EF93FF93E0914901F0914A013097CF
:100D700011F08FB10995FF91EF91BF91AF919F91C4
:100D80008F917F916F915F914F913F912F910F9034
:100D90000FBE0F901F9018951F920F920FB60F92D3
:100DA00011242F933F934F935F936F937F938F9370
:100DB0009F93AF93BF93EF93FF9380914F019091D7
:100DC0005001892B89F180914B0190914C01A091A8
:100DD0004D01B0914E010196A11DB11D80934B01B3
:100DE00090934C01A0934D01B0934E014091570157
:100DF000509158016091590170915A0184179507DB
:100E0000A607B70789F480915301819582BF10929C
:100E10004B0110924C0110924D0110924E01E09145
:100E20004F01F09150010995FF91EF91BF91AF9162
:100E30009F918F917F916F915F914F913F912F91F2
:100E40000F900FBE0F901F9018951F920F920FB624
:100E50000F9211242F933F934F935F936F937F9340
:100E60008F939F93AF93BF93EF93FF93E0915101C3
:100E7000F0915201309709F00995FF91EF91BF91E0
:100E8000AF919F918F917F916F915F914F913F9122
:100E90002F910F900FBE0F901F901895FC0181812C
:100EA00080936B018081882319F08F3021F00895A1
:100EB0008CE08FBD0895828190E09C0100243695DE
:100EC00027950794369527950794322F202D8295E4
:100ED0009295907F9827807F9827822B83608FBD83
:100EE00088E18EBD08958EB5887F8EBD9EB58091B8
:100EF0006B01892B8EBD0895811104C089B7846070
:100F000089BF0895813021F489B7806189BF089530
:100F1000833019F489B7806289BF0895611105C0D3
:100F20009093600180935F010895613029F490935C
:100F30006201809361010895633021F4909366010A
:100F400080936501089586B597B508952EB530E470
:100F5000839FC00111242F7B822B8EBD08951DBC61
:100F60001CBC08951F920F920FB60F9211242F935D
:100F70003F934F935F936F937F938F939F93AF9321
:100F8000BF93CF93DF93EF93FF93CFE5D1E0E88159
:100F9000F98109958091670190916801A09169019B
:100FA000B0916A010196A11DB11D809367019093D4
:100FB0006801A0936901B0936A01E881F9813097D3
:100FC00049F180915B0190915C01A0915D01B0912C
:100FD0005E010196A11DB11D80935B0190935C01A0
:100FE000A0935D01B0935E0140916C0150916D0141
:100FF00060916E0170916F0184179507A607B7077E
:1010000049F410925B0110925C0110925D01109204
:101010005E010995FF91EF91DF91CF91BF91AF9163
:101020009F918F917F916F915F914F913F912F9100
:101030000F900FBE0F901F9018951F920F920FB632
:101040000F9211242F933F934F935F936F937F934E
:101050008F939F93AF93BF93EF93FF93E0916101C1
:10106000F0916201309709F00995FF91EF91BF91DE
:10107000AF919F918F917F916F915F914F913F9130
:101080002F910F900FBE0F901F9018951F920F92E7
:101090000FB60F9211242F933F934F935F936F934B
:1010A0007F938F939F93AF93BF93EF93FF93E091C1
:1010B0006501F0916601309709F00995FF91EF9174
:1010C000BF91AF919F918F917F916F915F914F9160
:1010D0003F912F910F900FBE0F901F9018951F9268
:1010E0000F920FB60F9211242F933F934F935F935C
:1010F0006F937F938F939F93AF93BF93EF93FF93E0
:101100008CB1E0917001F0917101309709F009956F
:10111000FF91EF91BF91AF919F918F917F916F91CF
:101120005F914F913F912F910F900FBE0F901F90A5
:1011300018950E94350988F09F5798F0B92F992784
:10114000B751B0F0E1F0660F771F881F991F1AF0B2
:10115000BA95C9F714C0B13091F00E944F09B1E0BF
:1011600008950C944F09672F782F8827B85F39F0BE
:10117000B93FCCF3869577956795B395D9F73EF44B
:1011800090958095709561957F4F8F4F9F4F0895F3
:10119000E89409C097FB3EF4909580957095619511
:1011A0007F4F8F4F9F4F9923A9F0F92F96E9BB27C7
:1011B0009395F695879577956795B795F111F8CF43
:1011C000FAF4BB0F11F460FF1BC06F5F7F4F8F4FAE
:1011D0009F4F16C0882311F096E911C0772321F0A4
:1011E0009EE8872F762F05C0662371F096E8862F3C
:1011F00070E060E02AF09A95660F771F881FDAF793
:10120000880F9695879597F9089597F99F6780E8D5
:1012100070E060E008959FEF80EC089500240A9448
:101220001616170618060906089500240A941216C1
:101230001306140605060895092E0394000C11F4F4
:10124000882352F0BB0F40F4BF2B11F460FF04C0A1
:101250006F5F7F4F8F4F9F4F089557FD9058440FFA
:10126000551F59F05F3F71F04795880F97FB991F05
:1012700061F09F3F79F087950895121613061406C2
:10128000551FF2CF4695F1DF08C01616170618064F
:10129000991FF1CF86957105610508940895E8942A
:1012A000BB2766277727CB0197F908950E94690924
:1012B0000C941C090E940E0938F00E94150920F0B8
:1012C000952311F00C9405090C940B0911240C942E
:1012D00050090E942D0970F3959FC1F3950F50E0BE
:1012E000551F629FF001729FBB27F00DB11D639FD8
:1012F000AA27F00DB11DAA1F649F6627B00DA11D7E
:10130000661F829F2227B00DA11D621F739FB00D23
:10131000A11D621F839FA00D611D221F749F332793
:10132000A00D611D231F849F600D211D822F762F2C
:101330006A2F11249F5750409AF0F1F088234AF009
:10134000EE0FFF1FBB1F661F771F881F9150504075
:10135000A9F79E3F510580F00C9405090C945009A3
:101360005F3FE4F3983ED4F3869577956795B795FC
:10137000F795E7959F5FC1F7FE2B880F911D969516
:10138000879597F9089597FB072E16F4009407D0D8
:1013900077FD09D00E94DD0907FC05D03EF4909549
:1013A00081959F4F0895709561957F4F0895EE0F39
:1013B000FF1F0590F491E02D0994AA1BBB1B51E17E
:1013C00007C0AA1FBB1FA617B70710F0A61BB70BB5
:1013D000881F991F5A95A9F780959095BC01CD015A
:1013E0000895BB274A3031F4992322F4BDE2909549
:1013F00081959F4F0C94FD09BB27FB015527AA2718
:10140000880F991FAA1FA41710F0A41B8395505191
:10141000B9F7A05DAA3308F0A95DA193009779F709
:10142000B111B1931192CB010C94160ADC01FC01AD
:10143000672F71917723E1F7329704C07C916D9308
:1014400070836291AE17BF07C8F30895F894FFCF79
:101450000207010101070100010601000305000167
:101460000304000103020001030100010003010065
:1014700000020101000301010002010157656C63D4
:101480006F6D65205573657200446F6F72206F70C9
:10149000656E65640044697374616E63653A20002B
:1014A000506C7320456E7465722050617373776F52
:1014B00072643A00312D204C656473204F4E003227
:1014C0002D204C656473204F464600537973746534
:1014D0006D204C6F636B65642E00506C65617365A5
:1014E00020776169742E0052656D61696E696E675F
:1014F0003A200057726F6E672050617373776F7276
:10150000642E00506C656173652074727920616788
:1015100061696E0039003600330030003B0038004E
:0C152000350032003A0037003400310082
:00000001FF
