S01700004E54495F4156525F447269766572732E737265639C
S11300000C942A000C947E030C94A7030C94D00344
S11300100C9447000C9447000C94B8050C948F057D
S11300200C9447000C9424050C9497040C943E04FF
S11300300C9447000C9447000C9447000C94470020
S11300400C94E5020C9447000C9447000C94470070
S11300500C94470011241FBECFE5D8E0DEBFCDBF0E
S113006010E0A0E6B0E0E8EBFFE002C005900D92DE
S1130070A038B107D9F720E0A0E8B0E001C01D9294
S1130080A83BB207E1F70E9487000C94DA070C94AE
S113009000008091800090918100A0918200B09135
S11300A083000196A11DB11D80938000909381006F
S11300B0A0938200B09383000895809188008F5F9D
S11300C080938800813071F4109280001092810036
S11300D010928200109283000E94210580E00E9409
S11300E018050895823051F40E94150590938700F5
S11300F08093860081E00E9418050895833031F4CE
S11301000E94150590938500809384000895CF93F1
S1130110DF93CDB7DEB761970FB6F894DEBF0FBE9D
S1130120CDBF19821A821B821C8213E0198386E0D8
S11301308A83CE0101960E94FE021D821E821F82C6
S1130140188681E08D831E838F83CE0105960E94DD
S1130150FE020E94F9030E94EB0119861A861B868F
S11301601C86198705E00A8782E08B87CE010996F1
S11301700E94FB036EE183E00E9427047E018DE070
S1130180E80EF11CF70111920A95E9F71E8763E066
S11301908DE590E00E94000560E089E490E00E9413
S11301A00005C7010E94C00483E00E94EE0480E0C1
S11301B00E94EE0481E00E9418050E94E5048091EB
S11301C088008430E0F3609186007091870080E0BD
S11301D090E00E9482066B017C0160918400709122
S11301E0850080E090E00E9482069B01AC01C7017B
S11301F0B6010E94E10520E030E048EC52E40E94A0
S113020010070E9453060E94C60285E20E947002F3
S113021080E001C08F5F8436E8F3FACF0F931F9319
S1130220CF93DF93CDB7DEB764970FB6F894DEBFF4
S11302300FBECDBF082F81E089831A828B8304FB14
S1130240992790F99C838D838E838F8305FB99274F
S113025090F99887898792E09A878B8706FB99277C
S113026090F99C878D8794E09E878F87802F881FC5
S11302708827881F888B10E00FC0812F90E0880F9B
S1130280991F880F991F21E030E02C0F3D1F820F2A
S1130290931F0E943C031F5F143078F3198A82E095
S11302A08A8B1C8A89EF90E00197F1F700C0000067
S11302B0CE0141960E943C03E9EFF0E03197F1F75B
S11302C000C0000081E08C8BCE0141960E943C036B
S11302D089EF90E00197F1F700C0000010E01AC028
S11302E0812F90E0202F30E0012E02C03595279514
S11302F00A94E2F7880F991F880F991FE1E0F0E054
S1130300EC0FFD1F8E0F9F1F2170FC0123830E94A1
S11303103C031F5F143020F389EF90E00197F1F75D
S113032000C000001C8ACE0141960E943C03E9EF04
S1130330F0E03197F1F700C0000064960FB6F8942E
S1130340DEBF0FBECDBFDF91CF911F910F910895F6
S11303500F931F93CF93DF93CDB7DEB728970FB6D4
S1130360F894DEBF0FBECDBF082F88E0E0E6F0E0D2
S1130370DE01119601900D928A95E1F710E015C007
S1130380812F90E0880F991F880F991F21E030E09A
S11303902C0F3D1F820F931F0E943C0389EF90E0B6
S11303A00197F1F700C000001F5F123048F389EF96
S11303B090E00197F1F700C00000802F0E940E0129
S11303C028960FB6F894DEBF0FBECDBFDF91CF9154
S11303D01F910F9108951F93CF93DF93CDB7DEB78D
S11303E068970FB6F894DEBF0FBECDBFFE013196FD
S11303F088E0DF011D928A95E9F783E08A8381E032
S11304008B8392E09E838F8310E00FC0812F90E056
S1130410880F991F880F991F21E030E02C0F3D1F92
S1130420820F931F0E94FE021F5F123078F3FE01B9
S1130430399680E1DF011D928A95E9F781E0898789
S11304408B878D878E878F87898B92E09A8B8B8B96
S11304508D8B94E09E8B8F8B10E00FC0812F90E0EA
S1130460880F991F880F991F29E030E02C0F3D1F3A
S1130470820F931F0E94FE021F5F143078F382E004
S11304800E94A80189EF90E00197F1F700C00000F5
S113049088E20E94A801A9EFB0E01197F1F700C02B
S11304A000008FE00E94A80189EF90E00197F1F726
S11304B000C0000081E00E94A801A3EFB1E0119701
S11304C0F1F700C0000086E00E94A80168960FB60C
S11304D0F894DEBF0FBECDBFDF91CF911F91089579
S11304E00F931F93CF93DF93CDB7DEB728970FB643
S11304F0F894DEBF0FBECDBF082F88E0E8E6F0E039
S1130500DE01119601900D928A95E1F710E015C075
S1130510812F90E0880F991F880F991F21E030E008
S11305202C0F3D1F820F931F0E943C0389EF90E024
S11305300197F1F700C000001F5F123048F389EF04
S113054090E00197F1F700C00000802F0E940E0197
S113055028960FB6F894DEBF0FBECDBFDF91CF91C2
S11305601F910F9108950F931F93CF938C01C0E0B7
S113057003C00E947002CF5FF801EC0FF11D80816F
S11305808111F7CFCF911F910F910895CF93DF93EE
S1130590CDB7DEB760970FB6F894DEBF0FBECDBF00
S11305A0DC01CB014AE0BE016F5F7F4F0E94A507CB
S11305B0CE0101960E94B30260960FB6F894DEBF96
S11305C00FBECDBFDF91CF91089524B130E0002458
S11305D0220F331F001C220F331F001C232F302D2A
S11305E085B190E0880F991F880F991FE0918900C9
S11305F0F0918A00822B932B09950895DC01EC91EC
S1130600E430A0F511962C911197283088F51296B4
S11306108C91811115C0F0E0EE0FFF1FE858FF4FD9
S11306200190F081E02D81E090E002C0880F991FD5
S11306302A95E2F7809590818923808380E008954C
S11306408130C1F4F0E0EE0FFF1FE858FF4F019036
S1130650F081E02D81E090E002C0880F991F2A9577
S1130660E2F79081892B808380E0089581E00895EA
S113067081E0089581E008950097C1F1DC01EC91D7
S1130680E430B0F511962C911197283098F5139613
S11306908C918130A1F4F0E0EE0FFF1FE059FF4F81
S11306A00190F081E02D81E090E002C0880F991F55
S11306B02A95E2F79081892B808380E00895811147
S11306C01BC0F0E0EE0FFF1FE059FF4F0190F081D7
S11306D0E02D81E090E002C0880F991F2A95E2F78F
S11306E0809590818923808380E0089581E0089536
S11306F081E0089581E0089581E008951F920F92AA
S11307000FB60F9211242F933F934F935F936F93E0
S11307107F938F939F93AF93BF93EF93FF93E09156
S11307208B00F0918C00309709F00995FF91EF91BF
S1130730BF91AF919F918F917F916F915F914F91F5
S11307403F912F910F900FBE0F901F9018951F92FD
S11307500F920FB60F9211242F933F934F935F93F1
S11307606F937F938F939F93AF93BF93EF93FF9375
S1130770E0918D00F0918E00309709F00995FF917A
S1130780EF91BF91AF919F918F917F916F915F9105
S11307904F913F912F910F900FBE0F901F9018957E
S11307A01F920F920FB60F9211242F933F934F93E2
S11307B05F936F937F938F939F93AF93BF93EF93C5
S11307C0FF93E0918F00F0919000309709F0099524
S11307D0FF91EF91BF91AF919F918F917F916F9115
S11307E05F914F913F912F910F900FBE0F901F90EB
S11307F0189578940895FC01818180939A009081E2
S1130800911103C080E883BF0895923051F483812D
S11308108CBF828120E1829FC0011124886883BF3C
S11308200895933051F482818093990020E1829F4E
S1130830C0011124886483BF0895913039F4828102
S113084020E1829FC0011124806483BF0895282F72
S11308503FEF639FC001112464E670E00E947D07AE
S113086080919900823011F46CBF03C0833009F485
S11308706CBF83B7887F282B23BF08951F920F92E4
S11308800FB60F9211242F933F934F935F936F935F
S11308907F938F939F93AF93BF93EF93FF93809135
S11308A0950090919600892B89F180919100909107
S11308B09200A0919300B09194000196A11DB11DE6
S11308C08093910090939200A0939300B09394002E
S11308D040919F005091A0006091A1007091A200EE
S11308E084179507A607B70789F480919B00819523
S11308F082BF109291001092920010929300109275
S11309009400E0919500F09196000995FF91EF9184
S1130910BF91AF919F918F917F916F915F914F9113
S11309203F912F910F900FBE0F901F9018951F921B
S11309300F920FB60F9211242F933F934F935F930F
S11309406F937F938F939F93AF93BF93EF93FF9393
S1130950E0919700F0919800309709F00995FF9184
S1130960EF91BF91AF919F918F917F916F915F9123
S11309704F913F912F910F900FBE0F901F9018959C
S1130980FC0181818093B3008081882319F08F302A
S113099021F008958CE08FBD0895828190E09C0140
S11309A00024369527950794369527950794322F7A
S11309B0202D82959295907F9827807F9827822B6F
S11309C083608FBD88E18EBD08958EB5887F8EBD0E
S11309D09EB58091B300892B8EBD0895811104C00A
S11309E089B7846089BF0895813021F489B7806113
S11309F089BF0895833019F489B7806289BF089547
S1130A00611105C09093A8008093A70008956130F8
S1130A1029F49093AA008093A9000895633021F4E7
S1130A209093AE008093AD00089586B597B5089570
S1130A302EB530E4839FC00111242F7B822B8EBD01
S1130A4008951DBC1CBC08951F920F920FB60F92FF
S1130A5011242F933F934F935F936F937F938F93BF
S1130A609F93AF93BF93CF93DF93EF93FF93C7EA23
S1130A70D0E0E881F98109958091AF009091B000B0
S1130A80A091B100B091B2000196A11DB11D809357
S1130A90AF009093B000A093B100B093B200E8818E
S1130AA0F981309749F18091A3009091A400A0911D
S1130AB0A500B091A6000196A11DB11D8093A300CD
S1130AC09093A400A093A500B093A6004091B40015
S1130AD05091B5006091B6007091B70084179507E6
S1130AE0A607B70749F41092A3001092A40010922D
S1130AF0A5001092A6000995FF91EF91DF91CF9187
S1130B00BF91AF919F918F917F916F915F914F9121
S1130B103F912F910F900FBE0F901F9018951F9229
S1130B200F920FB60F9211242F933F934F935F931D
S1130B306F937F938F939F93AF93BF93EF93FF93A1
S1130B40E091A900F091AA00309709F00995FF916E
S1130B50EF91BF91AF919F918F917F916F915F9131
S1130B604F913F912F910F900FBE0F901F901895AA
S1130B701F920F920FB60F9211242F933F934F930E
S1130B805F936F937F938F939F93AF93BF93EF93F1
S1130B90FF93E091AD00F091AE00309709F0099514
S1130BA0FF91EF91BF91AF919F918F917F916F9141
S1130BB05F914F913F912F910F900FBE0F901F9017
S1130BC018950E94F5050C94D6060E94CF0658F09D
S1130BD00E94C80640F029F45F3F29F00C94BF0638
S1130BE051110C940A070C94C5060E94E70668F399
S1130BF09923B1F3552391F3951B550BBB27AA27D2
S1130C0062177307840738F09F5F5F4F220F331F0B
S1130C10441FAA1FA9F335D00E2E3AF0E0E832D0D3
S1130C2091505040E695001CCAF72BD0FE2F29D0D6
S1130C30660F771F881FBB1F261737074807AB07A8
S1130C40B0E809F0BB0B802DBF01FF2793585F4F1D
S1130C503AF09E3F510578F00C94BF060C940A07B5
S1130C605F3FE4F3983ED4F3869577956795B795FF
S1130C70F7959F5FC9F7880F911D9695879597F90A
S1130C800895E1E0660F771F881FBB1F6217730783
S1130C908407BA0720F0621B730B840BBA0BEE1F98
S1130CA088F7E09508950E94EF0688F09F5798F022
S1130CB0B92F9927B751B0F0E1F0660F771F881F5D
S1130CC0991F1AF0BA95C9F714C0B13091F00E9477
S1130CD00907B1E008950C940907672F782F882736
S1130CE0B85F39F0B93FCCF3869577956795B3959E
S1130CF0D9F73EF490958095709561957F4F8F4F0D
S1130D009F4F0895E89409C097FB3EF49095809511
S1130D10709561957F4F8F4F9F4F9923A9F0F92FBD
S1130D2096E9BB279395F695879577956795B7953B
S1130D30F111F8CFFAF4BB0F11F460FF1BC06F5F21
S1130D407F4F8F4F9F4F16C0882311F096E911C033
S1130D50772321F09EE8872F762F05C0662371F054
S1130D6096E8862F70E060E02AF09A95660F771F68
S1130D70881FDAF7880F9695879597F9089597F95C
S1130D809F6780E870E060E008959FEF80EC08952D
S1130D9000240A9416161706180609060895002456
S1130DA00A9412161306140605060895092E0394D0
S1130DB0000C11F4882352F0BB0F40F4BF2B11F444
S1130DC060FF04C06F5F7F4F8F4F9F4F089557FDA3
S1130DD09058440F551F59F05F3F71F04795880FA5
S1130DE097FB991F61F09F3F79F08795089512163C
S1130DF013061406551FF2CF4695F1DF08C01616E8
S1130E0017061806991FF1CF869571056105089498
S1130E100895E894BB2766277727CB0197F90895AF
S1130E200E9423070C94D6060E94C80638F00E943C
S1130E30CF0620F0952311F00C94BF060C94C50640
S1130E4011240C940A070E94E70670F3959FC1F3DE
S1130E50950F50E0551F629FF001729FBB27F00D64
S1130E60B11D639FAA27F00DB11DAA1F649F6627B9
S1130E70B00DA11D661F829F2227B00DA11D621F08
S1130E80739FB00DA11D621F839FA00D611D221FC2
S1130E90749F3327A00D611D231F849F600D211DA6
S1130EA0822F762F6A2F11249F5750409AF0F1F029
S1130EB088234AF0EE0FFF1FBB1F661F771F881F92
S1130EC091505040A9F79E3F510580F00C94BF0605
S1130ED00C940A075F3FE4F3983ED4F38695779524
S1130EE06795B795F795E7959F5FC1F7FE2B880F38
S1130EF0911D9695879597F9089597FB072E16F4FB
S1130F00009407D077FD09D00E94910707FC05D013
S1130F103EF4909581959F4F0895709561957F4F0C
S1130F200895AA1BBB1B51E107C0AA1FBB1FA6172C
S1130F30B70710F0A61BB70B881F991F5A95A9F77E
S1130F4080959095BC01CD010895BB274A3031F4BA
S1130F50992322F4BDE2909581959F4F0C94B1079B
S1130F60BB27FB015527AA27880F991FAA1FA4177F
S1130F7010F0A41B83955051B9F7A05DAA3308F073
S1130F80A95DA193009779F7B111B1931192CB01A7
S1130F900C94CA07DC01FC01672F71917723E1F7F8
S1130FA0329704C07C916D9370836291AE17BF0732
S10B0FB0C8F30895F894FFCF83
S1130FB80003010000020101000301010002010114
S1130FC83B003800350032003A0037003400310065
S9030000FC
