:100000000C942A000C94C9000C94F2000C941B016F
:100010000C9447000C9447000C9447000C94470044
:100020000C9447000C9447000C94C4010C946B0191
:100030000C9447000C9447000C9447000C94470024
:100040000C9472000C9447000C9447000C944700E9
:100050000C94470011241FBECFE5D8E0DEBFCDBF12
:1000600010E0A0E6B0E0EEEDF3E002C005900D92E6
:10007000A836B107D9F720E0A8E6B0E001C01D928C
:10008000A038B207E1F70E9449000C94ED010C94EE
:100090000000CF93DF93CDB7DEB728970FB6F89463
:1000A000DEBF0FBECDBF19821A821B821C8211E0F7
:1000B000198383E08A831B83CE0101960E948B0003
:1000C0000E94440182E08D8385E08E831F838AEF46
:1000D0008887CE0105960E944601CE0105960E94B2
:1000E0006301FFCF24B130E00024220F331F001C36
:1000F000220F331F001C232F302D85B190E0880F75
:10010000991F880F991FE0916800F0916900822B78
:10011000932B09950895DC01EC91E430A0F511963C
:100120002C911197283088F512968C91811115C069
:10013000F0E0EE0FFF1FE05AFF4F0190F081E02D3D
:1001400081E090E002C0880F991F2A95E2F7809520
:1001500090818923808380E008958130C1F4F0E0AC
:10016000EE0FFF1FE05AFF4F0190F081E02D81E07C
:1001700090E002C0880F991F2A95E2F79081892BA1
:10018000808380E0089581E0089581E0089581E012
:1001900008951F920F920FB60F9211242F933F9341
:1001A0004F935F936F937F938F939F93AF93BF937F
:1001B000EF93FF93E0916A00F0916B00309709F0A4
:1001C0000995FF91EF91BF91AF919F918F917F9191
:1001D0006F915F914F913F912F910F900FBE0F90B4
:1001E0001F9018951F920F920FB60F9211242F9304
:1001F0003F934F935F936F937F938F939F93AF93AF
:10020000BF93EF93FF93E0916C00F0916D003097F6
:1002100009F00995FF91EF91BF91AF919F918F9157
:100220007F916F915F914F913F912F910F900FBEF2
:100230000F901F9018951F920F920FB60F921124D6
:100240002F933F934F935F936F937F938F939F93DE
:10025000AF93BF93EF93FF93E0916E00F0916F0027
:10026000309709F00995FF91EF91BF91AF919F9160
:100270008F917F916F915F914F913F912F910F904F
:100280000FBE0F901F90189578940895FC019081EF
:10029000911103C080E883BF0895923051F48381A7
:1002A0008CBF828120E1829FC0011124886883BFB6
:1002B0000895933019F480E883BF0895913011F4C4
:1002C00080E883BF089523B7287F23BFFC01818185
:1002D000282B23BF08951F920F920FB60F9211245F
:1002E0002F933F934F935F936F937F938F939F933E
:1002F000AF93BF93EF93FF9380917400909175003B
:10030000892B89F18091700090917100A091720009
:10031000B09173000196A11DB11D80937000909360
:100320007100A0937200B093730040917C005091D3
:100330007D0060917E0070917F0084179507A6076D
:10034000B70789F480917800819582BF1092700080
:10035000109271001092720010927300E09174007C
:10036000F09175000995FF91EF91BF91AF919F9129
:100370008F917F916F915F914F913F912F910F904E
:100380000FBE0F901F9018951F920F920FB60F92ED
:1003900011242F933F934F935F936F937F938F938A
:1003A0009F93AF93BF93EF93FF93E0917600F0910B
:1003B0007700309709F00995FF91EF91BF91AF91C8
:1003C0009F918F917F916F915F914F913F912F916D
:0E03D0000F900FBE0F901F901895F894FFCF5E
:0803DE003A0037003400310041
:00000001FF
