S01700004E54495F4156525F447269766572732E737265639C
S11300000C942A000C9465030C948E030C94B7038F
S11300100C9447000C9447000C9422050C94F904AA
S11300200C9447000C948E040C9465040C940C04FA
S11300300C94E2030C9461050C9447000C94470063
S11300400C94CC020C9447000C9447000C94470089
S11300500C94470011241FBECFE5D8E0DEBFCDBF0E
S113006010E0A0E6B0E0E4E8FBE002C005900D92E9
S1130070A03AB107D9F720E0A0EAB0E001C01D9290
S1130080AE3EB207E1F70E9449000C94C0050C94FF
S113009000000E94E0030E944B050E94B0010E94F0
S11300A08B020E948400682F70E080E090E00E9440
S11300B08F022FEF83ED90E3215080409040E1F7D1
S11300C000C00000FFCF9091A000E92FF0E0EB52B8
S11300D0FF4F80839F5F9093A0000895DC0146E06A
S11300E050E080E090E008C0FD01E40FF51F20819E
S11300F0820F911D4F5F5F4F262F30E02250310950
S1130100421753078CF308951F93CF93DF93CDB712
S1130110DEB72C970FB6F894DEBF0FBECDBF10929A
S1130120A0008CE0ECE6F0E0DE01119601900D9267
S11301308A95E1F710E00AC0E1E0F0E0EC0FFD1F62
S1130140E10FF11D80810E9455051F5F1C30A0F353
S113015083E690E00E9459051091A0001C30E1F75D
S1130160612F85ED90E00E946E00212F30E0F901AF
S1130170EC52FF4F4081F901ED52FF4F208130E0F6
S1130180240F311D8217930719F48091DE0001C0FA
S113019080E12C960FB6F894DEBF0FBECDBFDF9181
S11301A0CF911F9108950F931F93CF93DF93CDB7F2
S11301B0DEB764970FB6F894DEBF0FBECDBF082F2D
S11301C081E089831A828B8304FB992790F99C83AD
S11301D08D838E838F8305FB992790F99887898770
S11301E092E09A878B8706FB992790F99C878D87E5
S11301F094E09E878F87802F881F8827881F888B8D
S113020010E00FC0812F90E0880F991F880F991F6D
S113021021E030E02C0F3D1F820F931F0E94230327
S11302201F5F143078F3198A82E08A8B1C8A8FE965
S11302309FE00197F1F700C00000CE0141960E94B3
S11302402303EFE9FFE03197F1F700C0000081E0FC
S11302508C8BCE0141960E9423038FE99FE0019786
S1130260F1F700C0000010E01AC0812F90E0202FA9
S113027030E0012E02C0359527950A94E2F7880FE5
S1130280991F880F991FE1E0F0E0EC0FFD1F8E0F1E
S11302909F1F2170FC0123830E9423031F5F1430DE
S11302A020F38FE99FE00197F1F700C000001C8A5A
S11302B0CE0141960E942303EFE9FFE03197F1F765
S11302C000C0000064960FB6F894DEBF0FBECDBF29
S11302D0DF91CF911F910F9108950F931F93CF93A7
S11302E0DF93CDB7DEB728970FB6F894DEBF0FBE05
S11302F0CDBF082F88E0E8E7F0E0DE011196019019
S11303000D928A95E1F710E015C0812F90E0880FD7
S1130310991F880F991F21E030E02C0F3D1F820F99
S1130320931F0E9423038FE99FE00197F1F700C018
S113033000001F5F123048F38FE99FE00197F1F747
S113034000C00000802F0E94D30028960FB6F894B6
S1130350DEBF0FBECDBFDF91CF911F910F910895E6
S11303601F93CF93DF93CDB7DEB768970FB6F8949A
S1130370DEBF0FBECDBFFE01319688E0DF011D92C6
S11303808A95E9F783E08A8381E08B8392E09E83F8
S11303908F8310E00FC0812F90E0880F991F880F82
S11303A0991F21E030E02C0F3D1F820F931F0E9404
S11303B0E5021F5F123078F3FE01399680E1DF0118
S11303C01D928A95E9F781E089878B878D878E87CF
S11303D08F87898B92E09A8B8B8B8D8B94E09E8B8D
S11303E08F8B10E00FC0812F90E0880F991F880F2A
S11303F0991F29E030E02C0F3D1F820F931F0E94AC
S1130400E5021F5F143078F382E00E946D018FE9EA
S11304109FE00197F1F700C0000088E20E946D019F
S1130420AFE9BFE01197F1F700C000008FE00E9430
S11304306D018FE99FE00197F1F700C0000081E0B2
S11304400E946D01AFE3BFE11197F1F700C0000016
S113045086E00E946D0168960FB6F894DEBF0FBE69
S1130460CDBFDF91CF911F9108950F931F93CF9329
S1130470DF93CDB7DEB728970FB6F894DEBF0FBE73
S1130480CDBF082F88E0E0E8F0E0DE01119601908E
S11304900D928A95E1F710E015C0812F90E0880F46
S11304A0991F880F991F21E030E02C0F3D1F820F08
S11304B0931F0E9423038FE99FE00197F1F700C087
S11304C000001F5F123048F38FE99FE00197F1F7B6
S11304D000C00000802F0E94D30028960FB6F89425
S11304E0DEBF0FBECDBFDF91CF911F910F91089555
S11304F00F931F93CF938C01C0E003C00E94350279
S1130500CF5FF801EC0FF11D80818111F7CFCF91FE
S11305101F910F91089581E00E946D010895CF937A
S1130520DF93CDB7DEB760970FB6F894DEBF0FBE8A
S1130530CDBFDC01CB0140E1BE016F5F7F4F0E9464
S11305408B0590E00DC04FE9480F463040F48052CF
S1130550E1E0F0E0EC0FFD1FE20FF31F80839F5FEB
S1130560292F30E0E1E0F0E0EC0FFD1FE20FF31F74
S113057080818111E8CF8AE890E00E947802CE0160
S113058001960E94780260960FB6F894DEBF0FBE03
S1130590CDBFDF91CF91089524B130E00024220F24
S11305A0331F001C220F331F001C232F302D85B155
S11305B090E0880F991F880F991FE091A100F09196
S11305C0A200822B932B09950895DC01EC91E43071
S11305D0A0F511962C911197283088F512968C91DC
S11305E0811115C0F0E0EE0FFF1FE856FF4F019098
S11305F0F081E02D81E090E002C0880F991F2A95D8
S1130600E2F7809590818923808380E0089581308A
S1130610C1F4F0E0EE0FFF1FE856FF4F0190F081A8
S1130620E02D81E090E002C0880F991F2A95E2F73F
S11306309081892B808380E0089581E0089581E092
S1130640089581E008950097C1F1DC01EC91E43054
S1130650B0F511962C911197283098F513968C913A
S11306608130A1F4F0E0EE0FFF1FE057FF4F01903F
S1130670F081E02D81E090E002C0880F991F2A9557
S1130680E2F79081892B808380E0089581111BC05B
S1130690F0E0EE0FFF1FE057FF4F0190F081E02DD7
S11306A081E090E002C0880F991F2A95E2F78095B7
S11306B090818923808380E0089581E0089581E01A
S11306C0089581E0089581E008951F920F920FB676
S11306D00F9211242F933F934F935F936F937F93C4
S11306E08F939F93AF93BF93EF93FF93E091A300F6
S11306F0F091A400309709F00995FF91EF91BF9113
S1130700AF919F918F917F916F915F914F913F91A5
S11307102F910F900FBE0F901F9018951F920F925C
S11307200FB60F9211242F933F934F935F936F93C0
S11307307F938F939F93AF93BF93EF93FF93E09136
S1130740A500F091A600309709F00995FF91EF916B
S1130750BF91AF919F918F917F916F915F914F91D5
S11307603F912F910F900FBE0F901F9018951F92DD
S11307700F920FB60F9211242F933F934F935F93D1
S11307806F937F938F939F93AF93BF93EF93FF9355
S1130790E091A700F091A800309709F00995FF9126
S11307A0EF91BF91AF919F918F917F916F915F91E5
S11307B04F913F912F910F900FBE0F901F9018955E
S11307C0789408951F920F920FB60F9211242F93CD
S11307D03F934F935F936F937F938F939F93AF93C5
S11307E0BF93EF93FF93E091A900F091AA00309793
S11307F011F08FB10995FF91EF91BF91AF919F9146
S11308008F917F916F915F914F913F912F910F90B5
S11308100FBE0F901F9018951F920F920FB60F9254
S113082011242F933F934F935F936F937F938F93F1
S11308309F93AF93BF93EF93FF938091AF009091F9
S1130840B000892B89F18091AB009091AC00A0910C
S1130850AD00B091AE000196A11DB11D8093AB0017
S11308609093AC00A093AD00B093AE004091B7005C
S11308705091B8006091B9007091BA00841795073F
S1130880A607B70789F48091B300819582BF1092BF
S1130890AB001092AC001092AD001092AE00E0914B
S11308A0AF00F091B0000995FF91EF91BF91AF9126
S11308B09F918F917F916F915F914F913F912F9174
S11308C00F900FBE0F901F9018951F920F920FB6A6
S11308D00F9211242F933F934F935F936F937F93C2
S11308E08F939F93AF93BF93EF93FF93E091B100E6
S11308F0F091B200309709F00995FF91EF91BF9103
S1130900AF919F918F917F916F915F914F913F91A3
S11309102F910F900FBE0F901F9018951F920F925A
S11309200FB60F9211242F933F934F935F936F93BE
S11309307F938F939F93AF93BF93CF93DF93EF9363
S1130940FF93CFEBD0E0E881F98109958091C7004E
S11309509091C800A091C900B091CA000196A11D50
S1130960B11D8093C7009093C800A093C900B093B1
S1130970CA00E881F981309749F18091BB009091D8
S1130980BC00A091BD00B091BE000196A11DB11D97
S11309908093BB009093BC00A093BD00B093BE00B5
S11309A04091CB005091CC006091CD007091CE006D
S11309B084179507A607B70749F41092BB00109255
S11309C0BC001092BD001092BE000995FF91EF91FA
S11309D0DF91CF91BF91AF919F918F917F916F9153
S11309E05F914F913F912F910F900FBE0F901F90E9
S11309F018951F920F920FB60F9211242F933F93C5
S1130A004F935F936F937F938F939F93AF93BF9312
S1130A10EF93FF93E091C100F091C200309709F089
S1130A200995FF91EF91BF91AF919F918F917F9124
S1130A306F915F914F913F912F910F900FBE0F9047
S1130A401F9018951F920F920FB60F9211242F9397
S1130A503F934F935F936F937F938F939F93AF9342
S1130A60BF93EF93FF93E091C500F091C6003097D8
S1130A7009F00995FF91EF91BF91AF919F918F91EB
S1130A807F916F915F914F913F912F910F900FBE86
S1130A900F901F90189582E08BB988E18AB986E897
S1130AA080BD10BC81E289B908955D9BFECF8CB9ED
S1130AB008952AB120682AB99093D0008093CF007A
S1130AC008951F920F920FB60F9211242F933F9304
S1130AD04F935F936F937F938F939F93AF93BF9342
S1130AE0EF93FF938CB1E091CF00F091D000309759
S1130AF009F00995FF91EF91BF91AF919F918F916B
S1130B007F916F915F914F913F912F910F900FBE05
S1130B100F901F901895BB274A3031F4992322F483
S1130B20BDE2909581959F4F0C949705BB27FB01DF
S1130B305527AA27880F991FAA1FA41710F0A41BD2
S1130B4083955051B9F7A05DAA3308F0A95DA1932C
S1130B50009779F7B111B1931192CB010C94B005C0
S1130B60DC01FC01672F71917723E1F7329704C010
S1130B707C916D9370836291AE17BF07C8F308959B
S1070B80F894FFCF13
S1130B84EF01FFFFFFFF010003400044EF01FFFFFB
S1130B94FFFF01000301000500030100000201013D
S1130BA400030101000201012E00307800306200CC
S1130BB43B003800350032003A003700340031007D
S9030000FC
