:100000000C942A000C947E030C94A7030C94D00348
:100010000C9447000C9447000C949F050C947605B3
:100020000C9447000C940B050C947E040C9425044E
:100030000C94FB030C94C8050C9447000C944700E7
:100040000C94E5020C9447000C9447000C94470074
:100050000C94470011241FBECFE5D8E0DEBFCDBF12
:1000600010E0A0E6B0E0E6EAFEE002C005900D92E6
:10007000A038B107D9F720E0A0E8B0E001C01D9298
:10008000AA3BB207E1F70E9449000C9451070C9477
:1000900000000E94F9030E943F010E9458020E9442
:1000A00039020E94C302BC0180E090E00E941A0263
:1000B0002FEF84E39CE0215080409040E1F700C0A6
:1000C0000000EDCF0F931F93CF93DF93CDB7DEB733
:1000D00064970FB6F894DEBF0FBECDBF082F81E046
:1000E00089831A828B8304FB992790F99C838D83E3
:1000F0008E838F8305FB992790F99887898792E0F3
:100100009A878B8706FB992790F99C878D8794E0C7
:100110009E878F87802F881F8827881F888B10E0F5
:100120000FC0812F90E0880F991F880F991F21E041
:1001300030E02C0F3D1F820F931F0E943C031F5F76
:10014000143078F3198A82E08A8B1C8A89EF90E058
:100150000197F1F700C00000CE0141960E943C03D8
:10016000E9EFF0E03197F1F700C0000081E08C8BFF
:10017000CE0141960E943C0389EF90E00197F1F790
:1001800000C0000010E01AC0812F90E0202F30E066
:10019000012E02C0359527950A94E2F7880F991F22
:1001A000880F991FE1E0F0E0EC0FFD1F8E0F9F1FFD
:1001B0002170FC0123830E943C031F5F143020F355
:1001C00089EF90E00197F1F700C000001C8ACE0192
:1001D00041960E943C03E9EFF0E03197F1F700C04F
:1001E000000064960FB6F894DEBF0FBECDBFDF915E
:1001F000CF911F910F9108950F931F93CF93DF938A
:10020000CDB7DEB728970FB6F894DEBF0FBECDBFCF
:10021000082F88E0E0E6F0E0DE01119601900D92F3
:100220008A95E1F710E015C0812F90E0880F991FA3
:10023000880F991F21E030E02C0F3D1F820F931F84
:100240000E943C0389EF90E00197F1F700C00000A5
:100250001F5F123048F389EF90E00197F1F700C07B
:100260000000802F0E94620028960FB6F894DEBF2F
:100270000FBECDBFDF91CF911F910F9108951F93B6
:10028000CF93DF93CDB7DEB768970FB6F894DEBF94
:100290000FBECDBFFE01319688E0DF011D928A9529
:1002A000E9F783E08A8381E08B8392E09E838F83EA
:1002B00010E00FC0812F90E0880F991F880F991FC1
:1002C00021E030E02C0F3D1F820F931F0E94FE02A1
:1002D0001F5F123078F3FE01399680E1DF011D9235
:1002E0008A95E9F781E089878B878D878E878F874D
:1002F000898B92E09A8B8B8B8D8B94E09E8B8F8B6E
:1003000010E00FC0812F90E0880F991F880F991F70
:1003100029E030E02C0F3D1F820F931F0E94FE0248
:100320001F5F143078F382E00E94FC0089EF90E0B8
:100330000197F1F700C0000088E20E94FC00A9EFDD
:10034000B0E01197F1F700C000008FE00E94FC00C0
:1003500089EF90E00197F1F700C0000081E00E9472
:10036000FC00A3EFB1E01197F1F700C0000086E0B8
:100370000E94FC0068960FB6F894DEBF0FBECDBF9A
:10038000DF91CF911F9108950F931F93CF93DF9328
:10039000CDB7DEB728970FB6F894DEBF0FBECDBF3E
:1003A000082F88E0E8E6F0E0DE01119601900D925A
:1003B0008A95E1F710E015C0812F90E0880F991F12
:1003C000880F991F21E030E02C0F3D1F820F931FF3
:1003D0000E943C0389EF90E00197F1F700C0000014
:1003E0001F5F123048F389EF90E00197F1F700C0EA
:1003F0000000802F0E94620028960FB6F894DEBF9E
:100400000FBECDBFDF91CF911F910F9108950F9334
:100410001F93CF938C01C0E003C00E94C401CF5F43
:10042000F801EC0FF11D80818111F7CFCF911F9161
:100430000F910895CF93DF93CDB7DEB760970FB6D6
:10044000F894DEBF0FBECDBFDC01CB014AE0BE0198
:100450006F5F7F4F0E941C07CE0101960E9407022A
:1004600060960FB6F894DEBF0FBECDBFDF91CF917F
:10047000089581E00E94FC000895809180008F5FC4
:1004800080938000813031F40E94080580E00E9452
:10049000FF040895823059F40E94FC049093820076
:1004A000809381000E94080581E00E94FF04089566
:1004B000EF92FF921F93CF93DF93CDB7DEB72D97C7
:1004C0000FB6F894DEBF0FBECDBFCE0101967C0102
:1004D00085E0F70111928A95E9F713E01A8363E04A
:1004E0008DE392E00E94E704C7010E94A70483E025
:1004F0000E94D50481E00E94FF040E94CC041E8269
:100500001F82188619861E831F8381E08887CE018B
:1005100006960E94FE021A861B861C861D861A8776
:100520001B87CE010A960E94FE022D960FB6F89404
:10053000DEBF0FBECDBFDF91CF911F91FF90EF9037
:100540000895CF93DF9300D000D0CDB7DEB783E01E
:1005500089838A8381E08B838C83CE0101960E94FC
:100560003C038FE39CE90197F1F700C000001C8277
:10057000CE0101960E943C030F900F900F900F90B8
:10058000DF91CF9108950E94A10280918000823076
:10059000B1F410928000609181007091820080E03F
:1005A00090E00E94210628E23EE74CE85CE30E94CE
:1005B000AF060E94F20570938400609383008091DF
:1005C0008300909184000196089524B130E00024C6
:1005D000220F331F001C220F331F001C232F302D2E
:1005E00085B190E0880F991F880F991FE0918500D1
:1005F000F0918600822B932B09950895DC01EC91F4
:10060000E430A0F511962C911197283088F51296B8
:100610008C91811115C0F0E0EE0FFF1FE858FF4FDD
:100620000190F081E02D81E090E002C0880F991FD9
:100630002A95E2F7809590818923808380E0089550
:100640008130C1F4F0E0EE0FFF1FE858FF4F01903A
:10065000F081E02D81E090E002C0880F991F2A957B
:10066000E2F79081892B808380E0089581E00895EE
:1006700081E0089581E008950097C1F1DC01EC91DB
:10068000E430B0F511962C911197283098F5139617
:100690008C918130A1F4F0E0EE0FFF1FE059FF4F85
:1006A0000190F081E02D81E090E002C0880F991F59
:1006B0002A95E2F79081892B808380E0089581114B
:1006C0001BC0F0E0EE0FFF1FE059FF4F0190F081DB
:1006D000E02D81E090E002C0880F991F2A95E2F793
:1006E000809590818923808380E0089581E008953A
:1006F00081E0089581E0089581E008951F920F92AE
:100700000FB60F9211242F933F934F935F936F93E4
:100710007F938F939F93AF93BF93EF93FF93E0915A
:100720008700F0918800309709F00995FF91EF91CB
:10073000BF91AF919F918F917F916F915F914F91F9
:100740003F912F910F900FBE0F901F9018951F9201
:100750000F920FB60F9211242F933F934F935F93F5
:100760006F937F938F939F93AF93BF93EF93FF9379
:10077000E0918900F0918A00309709F00995FF9186
:10078000EF91BF91AF919F918F917F916F915F9109
:100790004F913F912F910F900FBE0F901F90189582
:1007A0001F920F920FB60F9211242F933F934F93E6
:1007B0005F936F937F938F939F93AF93BF93EF93C9
:1007C000FF93E0918B00F0918C00309709F0099530
:1007D000FF91EF91BF91AF919F918F917F916F9119
:1007E0005F914F913F912F910F900FBE0F901F90EF
:1007F0001895789408951F920F920FB60F921124B6
:100800002F933F934F935F936F937F938F939F9318
:10081000AF93BF93EF93FF93E0918D00F0918E0023
:10082000309711F08FB10995FF91EF91BF91AF9182
:100830009F918F917F916F915F914F913F912F91F8
:100840000F900FBE0F901F9018951F920F920FB62A
:100850000F9211242F933F934F935F936F937F9346
:100860008F939F93AF93BF93EF93FF9380919300E8
:1008700090919400892B89F180918F009091900044
:10088000A0919100B09192000196A11DB11D80939D
:100890008F0090939000A0939100B09392004091AC
:1008A0009B0050919C0060919D0070919E00841768
:1008B0009507A607B70789F480919700819582BFB5
:1008C00010928F001092900010929100109292005E
:1008D000E0919300F09194000995FF91EF91BF9101
:1008E000AF919F918F917F916F915F914F913F91C8
:1008F0002F910F900FBE0F901F9018951F920F927F
:100900000FB60F9211242F933F934F935F936F93E2
:100910007F938F939F93AF93BF93EF93FF93E09158
:100920009500F0919600309709F00995FF91EF91AD
:10093000BF91AF919F918F917F916F915F914F91F7
:100940003F912F910F900FBE0F901F901895FC01B3
:1009500081818093AF008081882319F08F3021F04E
:1009600008958CE08FBD0895828190E09C01002461
:10097000369527950794369527950794322F202D85
:1009800082959295907F9827807F9827822B83600D
:100990008FBD88E18EBD08958EB5887F8EBD9EB5D2
:1009A0008091AF00892B8EBD0895811104C089B755
:1009B000846089BF0895813021F489B7806189BF3F
:1009C0000895833019F489B7806289BF0895611151
:1009D00005C09093A4008093A3000895613029F48A
:1009E0009093A6008093A5000895633021F490931E
:1009F000AA008093A900089586B597B508952EB5ED
:100A000030E4839FC00111242F7B822B8EBD08957B
:100A10001DBC1CBC08951F920F920FB60F9211249B
:100A20002F933F934F935F936F937F938F939F93F6
:100A3000AF93BF93CF93DF93EF93FF93C3EAD0E0DD
:100A4000E881F98109958091AB009091AC00A0916B
:100A5000AD00B091AE000196A11DB11D8093AB0019
:100A60009093AC00A093AD00B093AE00E881F98103
:100A7000309749F180919F009091A000A091A10032
:100A8000B091A2000196A11DB11D80939F0090938B
:100A9000A000A093A100B093A2004091B00050919B
:100AA000B1006091B2007091B30084179507A6075A
:100AB000B70749F410929F001092A0001092A10075
:100AC0001092A2000995FF91EF91DF91CF91BF9114
:100AD000AF919F918F917F916F915F914F913F91D6
:100AE0002F910F900FBE0F901F9018951F920F928D
:100AF0000FB60F9211242F933F934F935F936F93F1
:100B00007F938F939F93AF93BF93EF93FF93E09166
:100B1000A500F091A600309709F00995FF91EF919B
:100B2000BF91AF919F918F917F916F915F914F9105
:100B30003F912F910F900FBE0F901F9018951F920D
:100B40000F920FB60F9211242F933F934F935F9301
:100B50006F937F938F939F93AF93BF93EF93FF9385
:100B6000E091A900F091AA00309709F00995FF9152
:100B7000EF91BF91AF919F918F917F916F915F9115
:100B80004F913F912F910F900FBE0F901F9018958E
:100B90001F920F920FB60F9211242F933F934F93F2
:100BA0005F936F937F938F939F93AF93BF93EF93D5
:100BB000FF938CB1E091B400F091B500309709F04B
:100BC0000995FF91EF91BF91AF919F918F917F9187
:100BD0006F915F914F913F912F910F900FBE0F90AA
:100BE0001F9018950E948E0688F09F5798F0B92F95
:100BF0009927B751B0F0E1F0660F771F881F991F52
:100C00001AF0BA95C9F714C0B13091F00E94A80645
:100C1000B1E008950C94A806672F782F8827B85F55
:100C200039F0B93FCCF3869577956795B395D9F7A9
:100C30003EF490958095709561957F4F8F4F9F4FB3
:100C40000895E89409C097FB3EF4909580957095BF
:100C500061957F4F8F4F9F4F9923A9F0F92F96E908
:100C6000BB279395F695879577956795B795F1117D
:100C7000F8CFFAF4BB0F11F460FF1BC06F5F7F4F1A
:100C80008F4F9F4F16C0882311F096E911C077232C
:100C900021F09EE8872F762F05C0662371F096E835
:100CA000862F70E060E02AF09A95660F771F881F04
:100CB000DAF7880F9695879597F9089597F99F67C2
:100CC00080E870E060E008959FEF80EC08950024D4
:100CD0000A941616170618060906089500240A94A1
:100CE00012161306140605060895092E0394000C27
:100CF00011F4882352F0BB0F40F4BF2B11F460FFB6
:100D000004C06F5F7F4F8F4F9F4F089557FD9058DE
:100D1000440F551F59F05F3F71F04795880F97FBBF
:100D2000991F61F09F3F79F0879508951216130679
:100D30001406551FF2CF4695F1DF08C016161706A8
:100D40001806991FF1CF86957105610508940895DD
:100D5000E894BB2766277727CB0197F908950E946F
:100D6000C2060C9475060E94670638F00E946E0653
:100D700020F0952311F00C945E060C946406112467
:100D80000C94A9060E94860670F3959FC1F3950FF7
:100D900050E0551F629FF001729FBB27F00DB11DFF
:100DA000639FAA27F00DB11DAA1F649F6627B00D8F
:100DB000A11D661F829F2227B00DA11D621F739F78
:100DC000B00DA11D621F839FA00D611D221F749F86
:100DD0003327A00D611D231F849F600D211D822FCD
:100DE000762F6A2F11249F5750409AF0F1F08823F4
:100DF0004AF0EE0FFF1FBB1F661F771F881F915021
:100E00005040A9F79E3F510580F00C945E060C946B
:100E1000A9065F3FE4F3983ED4F3869577956795EE
:100E2000B795F795E7959F5FC1F7FE2B880F911D4A
:100E30009695879597F90895BB274A3031F4992301
:100E400022F4BDE2909581959F4F0C942807BB2713
:100E5000FB015527AA27880F991FAA1FA41710F076
:100E6000A41B83955051B9F7A05DAA3308F0A95D82
:100E7000A193009779F7B111B1931192CB010C9422
:100E80004107DC01FC01672F71917723E1F732976D
:100E900004C07C916D9370836291AE17BF07C8F355
:060EA0000895F894FFCF55
:100EA600000301000002010100030101000201012B
:100EB6003B003800350032003A003700340031007C
:00000001FF
